S01300004247415F73746174696F6E2E73726563E6
S113000025C2000041C200003FC200003DC2000002
S11300103BC2000039C2000037C2000035C20000F4
S113002033C2000017C300002FC200002DC200001D
S11300302BC2000029C2000027C2000025C2000014
S113004023C2000021C200001FC200001DC2000024
S11300501BC2000019C2000017C2000015C2000034
S113006013C2000011C200000FC200000DC2000044
S11300700BC2000009C2000007C2000005C2000054
S113008003C2000001C20000FFC100000000000024
S1130090000000000000000000000000000000005C
S11300A0000000000000000000000000000000004C
S11300B0000000000000000000000000000000003C
S11300C0000000000000000000000000000000002C
S11300D0000000000000000000000000000000001C
S11300E0000000000000000000C02020202020208C
S11300F020202020C0000000000000000000F010BC
S1130100101010E00000F00000804040408000002B
S1130110804040408000008040404080000080409B
S113012040408000000000000000000000000000CB
S1130130000000000000000000000000000F11316A
S113014031D1F1D1D13111110F00000000000000B4
S113015000001F010101010000001F00000F121226
S1130160120B00000C12120A1F0000091212120CCA
S113017000000F1212120B0000000000000000002B
S1130180000000000000000000000000000000006B
S113019000F0188686E1F1E1E1861818F00000000D
S11301A0000000000000000060800080608000808B
S11301B0600040202020C00000E80020F82000005B
S11301C0000000000000000000000000000000002B
S11301D0000000000000000000000000000000001B
S11301E000000000000307070707070707070707C2
S11301F003000000000000000000000000030C03E6
S113020000030C030000060909050F00000F00009D
S11302100F080000000008000008000008000000AB
S113022000000000000000000000000000000000CA
S113023000000000000000000000000000000000BA
S113024000000000000000000000000000000000AA
S1130250000000000000000000000000000000009A
S1130260000000000000000000000000000000008A
S1130270000000000000000000000000000000007A
S113028000000000000000000000002F0000000734
S1130290000700147F147F14242A7F2A12C4C81074
S11302A0264636495522500005030000001C224111
S11302B0000041221C0014083E081408083E0808E7
S11302C0000050300010101010100060600000207A
S11302D0100804023E5149453E00427F40004261FD
S11302E05149462141454B311814127F1027454589
S11302F045393C4A494930017109050336494949A0
S113030036064949291E00363600000056360000DC
S11303100814224100141414141400412214080275
S113032001510906324959513E7E1111117E7F490E
S11303304949363E414141227F4141221C7F49497E
S113034049417F090909013E4149497A7F08080862
S11303507F00417F41002040413F017F081422413A
S11303607F404040407F020C027F7F0408107F3EA4
S11303704141413E7F090909063E4151215E7F0901
S1130380192946464949493101017F01013F40404D
S1130390403F1F2040201F3F4038403F6314081453
S11303A06307087008076151494543007F414100D4
S11303B0552A552A550041417F0004020102044098
S11303C040404040000102040020545454787F48C7
S11303D04444383844444420384444487F385454CE
S11303E05418087E0901020C5252523E7F0804043C
S11303F07800447D40002040443D007F10284400A4
S113040000417F40007C041804787C080404783898
S1130410444444387C14141408081414187C7C08CC
S11304200404084854545420043F4440203C4040B1
S1130430207C1C2040201C3C4030403C4428102898
S1130440440C5050503C4464544C440011241FBE8E
S1130450CFEFD0E1DEBFCDBF11E0A0E0B1E0E8E333
S1130460F7E100E00BBF02C007900D92A63DB10773
S1130470D9F724E0A6EDB1E001C01D92AE31B20778
S1130480E1F755D20C949A0BBBCD86B1876886B937
S1130490089582EC87B9369A3699FECF64B175B166
S11304A080E090E05DD520E030E040E85AE3E6D516
S11304B02AE037ED43E250E4E1D523E333E343EDAF
S11304C050E4DCD56093FB037093FC038093FD033D
S11304D09093FE0380EC87B9369A3699FECF64B1C7
S11304E075B180E090E03CD520E030E040E85AE38C
S11304F0C5D52AE037ED43E250E4C0D56093F30359
S11305007093F4038093F5039093F6036093F703D9
S11305107093F8038093F9039093FA0308955DB1FF
S113052097E59DB998B321E030E001C0220F8A9588
S1130530EAF7822F8095892388BB44E080E090E02D
S1130540DC011FB8779BFECFBA2FA92F982F8827DD
S11305506FB1860F911DA11DB11D415091F738B3A4
S1130560322B38BB42E1B695A795979587954A9566
S1130570D1F795FF0CC0B095A095909581959F4FAC
S1130580AF4FBF4F9F73AA27BB2721E001C020E0D4
S11305900296A11DB11D32E0B595A7959795879553
S11305A03A95D1F7222339F0B095A095909581958D
S11305B09F4FAF4FBF4F5DB908952FEF21BB87EF1A
S11305C087BB88E082B9109261008FE082BB8FE71D
S11305D088BB13B888E182B9EAE8F0E080818260E0
S11305E08083ABE8B0E08C9180688C938C918260BE
S11305F08C9380818861808388EC90E09093810063
S11306008093800085B5886085BD85B5856085BD8E
S113061085B58D7F85BD23BD87B7806887BF7894F6
S1130620089528EC829FC00111246FEF70E09DD5DE
S113063070938700609386000895853608F084E6F9
S11306402FEF829FC001112464E670E08ED5609381
S1130650010408951F920F920FB60F9211248F93E5
S11306609F93809101049091D601981710F0979868
S113067001C0979A809101048F3F11F48093D601B1
S11306808091D6018F5F8093D6019F918F910F90B7
S11306900FBE0F901F901895882381F0959AEFE074
S11306A0F7E23197F1F700C000009598EFE0F7E228
S11306B03197F1F700C000008150EECF08958130EA
S11306C011F4949A089594980895CF93C2B394988A
S11306D02FE38DE093E0215080409040E1F700C08B
S11306E00000D3DED6DE2DE33AE047E95FE3609114
S11306F0F3037091F4038091F5039091F603BED453
S113070060930D0470930E0480930F04909310046F
S11307102DE33AE047E95FE36091F7037091F80352
S11307208091F9039091FA03A9D46093070470931C
S113073008048093090490930A04C2BBCF910895DE
S11307400F931F93CF93DF93082FC1E1D4E011E0FF
S1130750602F812F87D1699181E0A3D17BD21F5F64
S11307601F30B1F7DF91CF911F910F9108957F92C0
S11307708F929F92AF92BF92CF92DF92EF92FF92AD
S11307800F931F93CF93DF9381E086DF60E071E0E6
S113079081E194E006D581E0D3DF2FE986E891E09A
S11307A0215080409040E1F700C000006FE071E00C
S11307B081E194E0F6D481E0C3DF2FE986E891E09B
S11307C0215080409040E1F700C000006EE171E0EC
S11307D081E194E0E6D481E0B3DF2FE986E891E09B
S11307E0215080409040E1F700C000006DE271E0CC
S11307F081E194E0D6D481E0A3DF2FE986E891E09B
S1130800215080409040E1F700C0000013D178D31C
S1130810982EA5D277E3A72EB12C0CE311E0ECE4DB
S1130820EE2EE1E0FE2EFCE5CF2EF1E0DF2E94E08B
S1130830991609F467C0B0920604A092050460D327
S1130840982E6DE271E081E194E0ABD481E078DF31
S1130850809106048F93809105048F9380910C04FA
S11308608F9380910B048F931F930F93C1E1D4E076
S1130870DF93CF939DD483E063DF809103048F9350
S1130880809102048F93809100048F938091FF03E1
S11308908F93FF92EF92DF93CF938AD484E050DF5B
S11308A07F928F92DF92CF92DF93CF9381D485E0B2
S11308B047DF84E034DE90930C0480930B0485E0DE
S11308C02EDE909300048093FF0360910B047091DB
S11308D00C0480910504909106047CD2882E792E14
S11308E087EA91E60197F1F700C00000949A882DF9
S11308F098DE8DB79EB746960FB6F8949EBF0FBE8E
S11309008DBF95CF82E0C8DE1092870010928600DA
S113091080E0DF91CF911F910F91FF90EF90DF90D6
S1130920CF90BF90AF909F908F907F90C8CEECD126
S11309308FE773D07FD08CE890E078D18BD13DDE07
S1130940C4DE80E07ADE2FE38DE093E02150804026
S11309509040E1F700C00000D7D16CE671E081E17E
S113096094E01FD481E0ECDE6BE771E081E194E078
S113097018D482E0E5DE6AE871E081E194E011D404
S113098083E0DEDE69E971E081E194E00AD484E089
S1130990D7DEB6D299278230910589F024F40197E5
S11309A021F5E5DE28C08330910581F00497E9F450
S11309B066EC71E081E194E0F4D384E00DC068EA70
S11309C071E081E194E0EDD382E006C067EB71E071
S11309D081E194E0E6D383E0B3DE2FEF80E792E099
S11309E0215080409040E1F704C089EF90E00197E6
S11309F0F1F700C0000087EA91E60197F1F700C023
S1130A000000ABCFC698613011F4C79A01C0C798F3
S1130A108FB9779BFECFC69A0895CF93C82F60E015
S1130A2081E2F0DF60E08C2F8068ECDF60E080E240
S1130A30CF91E8CF88EF91E0EEEDF1E0DF019C018A
S1130A401D9221503040E1F71092DB011092DA013F
S1130A5087EF91E09093D9018093D80181E080934E
S1130A60D70108958F30D8F46730C8F490E0019727
S1130A7046E0489F9001499F300D112470E0615079
S1130A80710944E5469FC001479F900D1124280F2A
S1130A90391F3093DD012093DC0180E0089581E06B
S1130AA008951F93CF93DF932091DC013091DD01F2
S1130AB04091DA015091DB012417350724F4309377
S1130AC0DB012093DA0190EE960F9C3508F06CE57B
S1130AD08130C9F4C9012B5F3F4F45E0649FB001E9
S1130AE01124681B790B6C517E4FFB01E80FF91F31
S1130AF0E491DC01A252BE4FEE0FEC9301968217F3
S1130B00930799F766C0823009F067C0C90184551C
S1130B1091094091DA015091DB018417950724F47F
S1130B209093DB018093DA0197FD7BC0AC0185E0F3
S1130B30689FB001112480E090E06C517E4F1CE06E
S1130B40D8E1FB01E80FF91FE491EE0FAE2FA4707A
S1130B50A19FA02D1124BE2FB270FB2FFF0FFB0FFE
S1130B60FF0FAF2BFE2FF870FD9FF02D1124AF2B3C
S1130B70E295EF70FE2FF270CF2FCC0FCF0FCC0F7A
S1130B80BE2FB170FB2FFF0FFB0FCF2BFE2FF47086
S1130B90F19FF02D1124CF2BE870ED9FE02D11244F
S1130BA0CE2BFA01E252FE4FA083A183DF01AC5A9F
S1130BB0BF4FCC93EB5AFF4FC08301964E5F5F4FFC
S1130BC08530910509F0BDCFC9010B9668EF71E03E
S1130BD0CCD29093DD018093DC018091DC01909173
S1130BE0DD012091D8013091D9012817390724F467
S1130BF09093D9018093D801FC01E252FE4F1082F8
S1130C00873F21E0920731F41092DD011092DC015C
S1130C1082E008C001969093DD018093DC0180E0BE
S1130C2001C081E0DF91CF911F91089548EF51E019
S1130C30BC018EED91E0ACD21092DB011092DA018E
S1130C4087EF91E09093D9018093D80181E080935C
S1130C50D70108951F93CF93DF938091DA01909188
S1130C60DB0197FF05C01092DB011092DA0109C085
S1130C70883F914034F087EF91E09093DB018093BB
S1130C80DA018091D8019091D90197FF05C01092A3
S1130C90D9011092D80109C0883F914034F087EF00
S1130CA091E09093D9018093D801C091DA01D09159
S1130CB0DB01CE0164E570E058D2162F60E0806855
S1130CC0A1DE60E0812F80649DDE8091D801909147
S1130CD0D9018C179D0744F0FE01E252FE4F61E0FA
S1130CE0808190DE2196F1CF87EF91E09093DB0134
S1130CF08093DA011092D9011092D8011092D70191
S1130D00DF91CF911F910895929A87B3876F87BB24
S1130D108A9ABB98C59AC49A9298929A80E58DB99A
S1130D20C69A60E081E26EDE60E088EC6BDE60E033
S1130D3086E068DE60E083E165DE60E080E262DE3A
S1130D4060E08CE05FDE88EF91E09093DB018093BC
S1130D50DA011092D9011092D8016CDE7BCF109287
S1130D60D7031092D6031092E0031092DF0310927F
S1130D70DC031092DB038FEF90E09093DA0380930F
S1130D80D9039093DE038093DD031092EE03109257
S1130D90ED031092EC031092EB031092EA0310920D
S1130DA0E9031092D80385E090E09093E8038093E0
S1130DB0E7032FE030E03093E6032093E50322E0DD
S1130DC030E03093E2032093E1039093E4038093B3
S1130DD0E30308954091F1035091F2035093F0031B
S1130DE04093EF03FC01E61BF70BF093F203E0934F
S1130DF0F103F093EE03E093ED036091E10370914E
S1130E00E203469F9001479F300D569F300D1124F9
S1130E108091EB039091EC03280F391F3093EC037E
S1130E202093EB03CF01841B950B9FD17093EA03AE
S1130E306093E9038091D9039091DA0382179307B1
S1130E4024F49093EC038093EB038091DB03909163
S1130E50DC032091EB033091EC032817390724F4C9
S1130E609093EC038093EB038091E7039091E80364
S1130E70E89F9001E99F300DF89F300D1124E09117
S1130E80E503F091E6034091EB035091EC03E49FFA
S1130E90C001E59F900DF49F900D1124280F391F78
S1130EA04091E3035091E403649FC001659F900D5A
S1130EB0749F900D1124280F391F3093D70320936A
S1130EC0D6038091DD039091DE038217930720F40B
S1130ED09093D7038093D6038091DF039091E0032E
S1130EE02091D6033091D7032817390720F4909323
S1130EF0D7038093D6038091D6039091D7030895A6
S1130F0083EC87B9369A3699FECF84B195B19C01AA
S1130F10285F324023313105B8F022503F4F23314E
S1130F203105A0F022503F4F2331310588F000975E
S1130F3089F0265A31402331310570F080559140B3
S1130F40439760F486E0089581E0089582E008956F
S1130F5083E0089584E0089585E0089580E008958D
S1130F60E89409C097FB3EF490958095709561953F
S1130F707F4F8F4F9F4F9923A9F0F92F96E9BB27F5
S1130F809395F695879577956795B795F111F8CF71
S1130F90FAF4BB0F11F460FF1BC06F5F7F4F8F4FDC
S1130FA09F4F16C0882311F096E911C0772321F0D2
S1130FB09EE8872F762F05C0662371F096E8862F6A
S1130FC070E060E02AF09A95660F771F881FDAF7C1
S1130FD0880F9695879597F9089597F99F6780E804
S1130FE070E060E008959FEF80EC089500240A9477
S1130FF01616170618060906089500240A941216F0
S11310001306140605060895092E0394000C11F422
S1131010882352F0BB0F40F4BF2B11F460FF04C0CF
S11310206F5F7F4F8F4F9F4F089557FD9058440F28
S1131030551F59F05F3F71F04795880F97FB991F33
S113104061F09F3F79F087950895121613061406F0
S1131050551FF2CF4695F1DF08C01616170618067D
S1131060991FF1CF86957105610508940895E89458
S1131070BB2766277727CB0197F908950BD0C4CFF8
S1131080B5DF28F0BADF18F0952309F0A6CFABCF6F
S11310901124EECFCADFA0F3959FD1F3950F50E052
S11310A0551F629FF001729FBB27F00DB11D639F16
S11310B0AA27F00DB11DAA1F649F6627B00DA11DBC
S11310C0661F829F2227B00DA11D621F739FB00D62
S11310D0A11D621F839FA00D611D221F749F3327D2
S11310E0A00D611D231F849F600D211D822F762F6B
S11310F06A2F11249F5750408AF0E1F088234AF068
S1131100EE0FFF1FBB1F661F771F881F91505040B3
S1131110A9F79E3F510570F060CFAACF5F3FECF373
S1131120983EDCF3869577956795B795F795E7959F
S11311309F5FC1F7FE2B880F911D9695879597F9B0
S11311400895AA1BBB1B51E107C0AA1FBB1FA6170A
S1131150B70710F0A61BB70B881F991F5A95A9F75C
S113116080959095BC01CD01089597FB072E16F448
S1131170009406D077FD08D0E4DF07FC05D03EF4E8
S1131180909581959F4F0895709561957F4F08952F
S1131190FB01DC0102C005900D9241505040D8F78C
S11311A00895FB01DC0101900D920020E1F7089500
S11311B00F931F93CF93DF93CDB7DEB72E970FB660
S11311C0F894DEBF0FBECDBF0D891E8986E08C83E7
S11311D01A8309838FEF9FE79E838D83AE01475E59
S11311E05F4F6F89788DCE01019610D0EF81F8851D
S11311F0E00FF11F10822E960FB6F894DEBF0FBEDB
S1131200CDBFDF91CF911F910F9108952F923F92FF
S11312104F925F926F927F928F929F92AF92BF9202
S1131220CF92DF92EF92FF920F931F93CF93DF93AE
S1131230CDB7DEB72C970FB6F894DEBF0FBECDBF87
S11312407C016B018A01FC0117821682838181FF74
S1131250B0C1CE0101964C01F7019381F60193FDD3
S1131260859193FF81916F01882309F49EC1853292
S113127039F493FD859193FF81916F01853221F4B7
S1131280B70190E0C7D1E8CF512C312C20E02032B7
S1131290A0F48B3269F030F4803259F0833269F46F
S11312A020612CC08D3239F0803339F4216026C09E
S11312B02260246023C0286021C027FD27C030EDB0
S11312C0380F3A3078F426FF06C0FAE05F9E300DFE
S11312D01124532E13C08AE0389E300D1124332E6E
S11312E020620CC08E3221F426FD5FC1206406C04A
S11312F08C3611F4206802C0883641F4F60193FD5F
S1131300859193FF81916F018111C1CF982F9F7DAA
S11313109554933028F40C5F1F4FFFE3F9830DC0FD
S1131320833631F0833771F0833509F057C021C01B
S1131330F801808189830E5F1F4F44244394512C0C
S1131340540114C03801F2E06F0E711CF801A08042
S1131350B18026FF03C0652D70E002C06FEF7FEF00
S1131360C5012C874CD12C0183012C852F77222E8B
S113137016C03801F2E06F0E711CF801A080B18034
S113138026FF03C0652D70E002C06FEF7FEFC5013B
S11313902C872AD12C012C852068222E830123FC42
S11313A019C0832D90E048165906A0F4B70180E2D5
S11313B090E030D13A94F5CFF50127FC859127FED2
S11313C081915F01B70190E025D131103A94F1E0A9
S11313D04F1A51084114510479F7DEC0843611F0D4
S11313E0893631F5F80127FF07C060817181828158
S11313F093810C5F1F4F08C060817181882777FD3E
S11314008095982F0E5F1F4F2F76B22E97FF09C03D
S113141090958095709561957F4F8F4F9F4F206871
S1131420B22E2AE030E0A40127D1A82EA81843C088
S1131430853729F42F7EB22E2AE030E025C0F22F22
S1131440F97FBF2E8F36C1F018F4883579F0ADC01E
S1131450803719F0883721F0A8C02F2F2061B22ED1
S1131460B4FE0DC08B2D8460B82E09C024FF0AC0C1
S11314709F2F9660B92E06C028E030E005C020E119
S113148030E002C020E132E0F801B7FE07C060811D
S11314907181828193810C5F1F4F06C060817181CD
S11314A080E090E00E5F1F4FA401E6D0A82EA8189C
S11314B0FB2DFF77BF2EB6FE0BC02B2D2E7FA51460
S11314C050F4B4FE0AC0B2FC08C02B2D2E7E05C019
S11314D07A2C2B2D03C07A2C01C0752C24FF0DC04F
S11314E0FE01EA0DF11D8081803311F4297E09C0CB
S11314F022FF06C07394739404C0822F867809F087
S1131500739423FD12C020FF06C05A2C731418F4E0
S1131510530C5718732C731460F4B70180E290E0F5
S11315202C8778D073942C85F6CF731410F4371865
S113153001C0312C24FF11C0B70180E390E02C8757
S113154069D02C8522FF16C021FF03C088E590E0F6
S113155002C088E790E0B7010CC0822F867851F072
S113156021FD02C080E201C08BE227FD8DE2B701BC
S113157090E050D0A51430F4B70180E390E04AD055
S11315805A94F8CFAA94F401EA0DF11D8081B701B1
S113159090E040D0A110F6CF332009F45DCEB7011E
S11315A080E290E037D03A94F7CFF70186819781B3
S11315B002C08FEF9FEF2C960FB6F894DEBF0FBEDC
S11315C0CDBFDF91CF911F910F91FF90EF90DF90EE
S11315D0CF90BF90AF909F908F907F906F905F90CF
S11315E04F903F902F900895FC01059061507040FA
S11315F00110D8F7809590958E0F9F1F0895FC01D8
S11316006150704001900110D8F7809590958E0F2D
S11316109F1F08950F931F93CF93DF93182F092FC4
S1131620EB018B8181FD03C08FEF9FEF20C082FF10
S113163010C04E815F812C813D81421753077CF499
S1131640E881F9819F012F5F3F4F398328831083FD
S113165006C0E885F985812F0995892B29F72E8104
S11316603F812F5F3F4F3F832E83812F902FDF9148
S1131670CF911F910F910895FA01AA27283051F1B3
S1131680203181F1E8946F936E7F6E5F7F4F8F4FAF
S11316909F4FAF4FB1E03ED0B4E03CD0670F781F0E
S11316A0891F9A1FA11D680F791F8A1F911DA11DF3
S11316B06A0F711D811D911DA11D20D009F468942C
S11316C03F912AE0269F11243019305D3193DEF6D4
S11316D0CF010895462F4770405D4193B3E00FD08A
S11316E0C9F7F6CF462F4F70405D4A3318F0495D75
S11316F031FD4052419302D0A9F7EACFB4E0A69558
S11317009795879577956795BA95C9F70097610579
S1131710710508959B01AC010A2E069457954795CF
S113172037952795BA95C9F7620F731F841F951FC4
S10B1730A01D0895F894FFCFF9
S11317382020204C55544F57414E49452020003E07
S113174820204C55544F57414E4945203C003E3EBD
S1131758204C55544F57414E49453C3C003E3E3E73
S11317684C55544F57414E49453C3C0054312C5438
S1131778317A2025642020202564200054322C54FA
S1131788327A2025642020202564200077203D20FB
S1131798256420202020202020202000312E204CC9
S11317A855544F57414E4945202000322E204D456F
S11317B84E552020202020202000332E204D454E39
S11317C8552020202020202000342E204D454E5521
S11317D820202020202020003E3E50525A594349C0
S11317E8534B20323C3C003E3E50525A59434953D5
S11317F84B20333C3C003E3E50525A594349534BCC
S109180820343C3C00000A
S9030000FC
