:1000000025C2000041C200003FC200003DC2000006
:100010003BC2000039C2000037C2000035C20000F8
:1000200033C2000013C300002FC200002DC2000025
:100030002BC2000029C2000027C2000025C2000018
:1000400023C2000021C200001FC200001DC2000028
:100050001BC2000019C2000017C2000015C2000038
:1000600013C2000011C200000FC200000DC2000048
:100070000BC2000009C2000007C2000005C2000058
:1000800003C2000001C20000FFC100000000000028
:100090000000000000000000000000000000000060
:1000A0000000000000000000000000000000000050
:1000B0000000000000000000000000000000000040
:1000C0000000000000000000000000000000000030
:1000D0000000000000000000000000000000000020
:1000E000000000000000000000C020202020202090
:1000F00020202020C0000000000000000000F010C0
:10010000101010E00000F00000804040408000002F
:10011000804040408000008040404080000080409F
:1001200040408000000000000000000000000000CF
:10013000000000000000000000000000000F11316E
:1001400031D1F1D1D13111110F00000000000000B8
:1001500000001F010101010000001F00000F12122A
:10016000120B00000C12120A1F0000091212120CCE
:1001700000000F1212120B0000000000000000002F
:10018000000000000000000000000000000000006F
:1001900000F0188686E1F1E1E1861818F000000011
:1001A000000000000000000060800080608000808F
:1001B000600040202020C00000E80020F82000005F
:1001C000000000000000000000000000000000002F
:1001D000000000000000000000000000000000001F
:1001E00000000000000307070707070707070707C6
:1001F00003000000000000000000000000030C03EA
:1002000000030C030000060909050F00000F0000A1
:100210000F080000000008000008000008000000AF
:1002200000000000000000000000000000000000CE
:1002300000000000000000000000000000000000BE
:1002400000000000000000000000000000000000AE
:10025000000000000000000000000000000000009E
:10026000000000000000000000000000000000008E
:10027000000000000000000000000000000000007E
:1002800000000000000000000000002F0000000738
:10029000000700147F147F14242A7F2A12C4C81078
:1002A000264636495522500005030000001C224115
:1002B000000041221C0014083E081408083E0808EB
:1002C000000050300010101010100060600000207E
:1002D000100804023E5149453E00427F4000426101
:1002E0005149462141454B311814127F102745458D
:1002F00045393C4A494930017109050336494949A4
:1003000036064949291E00363600000056360000E0
:100310000814224100141414141400412214080279
:1003200001510906324959513E7E1111117E7F4912
:100330004949363E414141227F4141221C7F494982
:1003400049417F090909013E4149497A7F08080866
:100350007F00417F41002040413F017F081422413E
:100360007F404040407F020C027F7F0408107F3EA8
:100370004141413E7F090909063E4151215E7F0905
:10038000192946464949493101017F01013F404051
:10039000403F1F2040201F3F4038403F6314081457
:1003A0006307087008076151494543007F414100D8
:1003B000552A552A550041417F000402010204409C
:1003C00040404040000102040020545454787F48CB
:1003D0004444383844444420384444487F385454D2
:1003E0005418087E0901020C5252523E7F08040440
:1003F0007800447D40002040443D007F10284400A8
:1004000000417F40007C041804787C08040478389C
:10041000444444387C14141408081414187C7C08D0
:100420000404084854545420043F4440203C4040B5
:10043000207C1C2040201C3C4030403C442810289C
:10044000440C5050503C4464544C440011241FBE92
:10045000CFEFD0E1DEBFCDBF16E0A0E0B1E0E4E831
:10046000F2E200E00BBF02C007900D92A63AB1077E
:10047000D9F729E0A6EAB6E001C01D92A636B20778
:10048000E1F7C7D40C944011BBCD86B1876886B91B
:10049000089582EC87B9369A3699FECF64B175B16A
:1004A00080E090E00E945D0D20E030E040E85AE3FB
:1004B0000E94EB0D2AE037ED43E250E40E94EB0D81
:1004C00023E333E343ED50E40E94EB0D6093AE0869
:1004D0007093AF088093B0089093B10880EC87B90F
:1004E000369A3699FECF64B175B180E090E00E94F3
:1004F0005D0D20E030E040E85AE30E94EB0D2AE079
:1005000037ED43E250E40E94EB0D6093A608709330
:10051000A7088093A8089093A9086093AA087093ED
:10052000AB088093AC089093AD0808954DB197E562
:100530009DB998B321E030E002C0220F331F8A95A5
:10054000E2F7822F8095982398BB54E080E090E0FA
:10055000DC011FB8779BFECFBA2FA92F982F8827D1
:100560006FB1860F911DA11DB11D515091F738B388
:10057000232B28BB072E72E1B695A79597958795F3
:100580007A95D1F7702D95FF1DC0B095A0959095E7
:1005900081959F4FAF4FBF4F9F73AA27BB270296EE
:1005A000A11DB11DB595A79597958795B595A7956B
:1005B00097958795B095A095909581959F4FAF4F52
:1005C000BF4F0BC00296A11DB11DB595A79597957C
:1005D0008795B595A795979587954DB908952FEF70
:1005E00021BB87EF87BB88E082B9109261008FE062
:1005F00082BB8FE788BB13B888E182B9EAE8F0E0F4
:10060000808188618083808182608083ABE8B0E0F4
:100610008C9180688C938C9182608C9380818861AE
:10062000808388EE93E0909381008093800085B56D
:10063000886085BD85B5856085BD85B58D7F85BDA7
:1006400023BD87B7806887BF789408951F920F9263
:100650000FB60F9211240BB60F922F933F934F9327
:100660005F936F937F938F939F93AF93BF93EF931A
:10067000FF930E94970C8093C5088091B4089091D5
:10068000A606981710F0979801C0979A8091B40821
:100690008F3F19F41092A60607C08091A6068F5FBF
:1006A0008093A606811103C081E08093C60881E093
:1006B0008093C408FF91EF91BF91AF919F918F916B
:1006C0007F916F915F914F913F912F910F900BBE52
:1006D0000F900FBE0F901F9018958823B1F0959A38
:1006E0002FEF39EF90E0215030409040E1F700C00B
:1006F000000095982FEF39EF90E021503040904066
:10070000E1F700C00000815051F70895813011F4E5
:10071000949A089594980895CF93C2B394982FEF24
:1007200084E39CE0215080409040E1F700C000004D
:10073000ACDEAFDE2DE33AE047E95FE36091A60867
:100740007091A7088091A8089091A9080E94EB0DCC
:100750006093C7087093C8088093C9089093CA082B
:100760002DE33AE047E95FE36091AA087091AB0896
:100770008091AC089091AD080E94EB0D6093BD088C
:100780007093BE088093BF089093C008C2BBCF91FE
:1007900008950F931F93CF93DF93082FCFECD8E0EA
:1007A00011E0602F812F25D4699181E044D430D5A8
:1007B0001F5F1F30B1F7DF91CF911F910F91089507
:1007C000DF92EF92FF920F931F93CF93DF931092DC
:1007D000C508F7D381E09ADFDD24DA940F2EFFE01D
:1007E000FF2EF02D0F2EF1E1EF2EF02D07E315E097
:1007F0007BC085E09BDE9093B3088093B208889716
:100800000CF0A4C0D092B408EAEEF4E0AFECB8E08B
:100810008F2D01900D928A95E1F781E0BADF2FEFDD
:1008200081EE94E0215080409040E1F700C000004C
:10083000E9EFF4E0AFECB8E08F2D01900D928A95CE
:10084000E1F781E0A6DF2FEF81EE94E021508040B8
:100850009040E1F700C00000E8E0F5E0AFECB8E060
:100860008F2D01900D928A95E1F781E092DF2FEFB5
:1008700081EE94E0215080409040E1F700C00000FC
:10088000E7E1F5E0AFECB8E08F2D01900D928A958D
:10089000E1F781E07EDF2FEF81EE94E02150804090
:1008A0009040E1F700C00000CFECD8E0E6E2F5E0D0
:1008B000DE018E2D01900D928A95E1F783E069DFCC
:1008C0008091B3088F938091B2088F931F930F93F9
:1008D000DF93CF930E947E0E84E05BDF0F900F903A
:1008E0000F900F900F900F908091C508853008F001
:1008F00080CF8091C508843008F47BCF8091C508F3
:100900008430D9F4CEE0E8E4F5E0AFECB8E08C2F29
:1009100001900D928A95E1F785E03BDF9FEF21EE94
:1009200084E0915020408040E1F700C0000081E069
:10093000D4DE8091C508843031F39FEF21EE84E04E
:10094000915020408040E1F700C00000DF91CF913E
:100950001F910F91FF90EF90DF9008952F923F929B
:100960004F925F926F927F928F929F92AF92BF92BF
:10097000CF92DF92EF92FF920F931F93CF93DF936B
:10098000CDB7DEB7CA5ED3400FB6F894DEBF0FBE58
:10099000CDBF85EF91E0E0E0F1E0DE01119601903E
:1009A0000D920197E1F785EF91E0E5EFF2E0DE01CE
:1009B000AA50BE4F01900D920197E1F781E08DDEC4
:1009C0008FE0E6E5F5E0AFECB8E001900D928A9596
:1009D000E1F781E0DEDE2FEF31EE84E021503040A0
:1009E0008040E1F700C000008FE0E5E6F5E0AFEC05
:1009F000B8E001900D928A95E1F781E0CADE9FEFA1
:100A0000A1EEB4E09150A040B040E1F700C000007A
:100A10008FE0E4E7F5E0AFECB8E001900D928A9545
:100A2000E1F781E0B6DEEFEFF1EE24E0E150F040D7
:100A30002040E1F700C000008FE0E3E8F5E0AFEC14
:100A4000B8E001900D928A95E1F781E0A2DE3FEFD8
:100A500081EE94E0315080409040E1F700C000000A
:100A6000B0D28091B508813069F481E79DE3AAE8AE
:100A7000BFE38093CB089093CC08A093CD08B093AC
:100A8000CE080CC080E090E0A0E8BFE38093CB08E4
:100A90009093CC08A093CD08B093CE0849D4C4D588
:100AA00085E044DD9093B3088093B20884E03EDD96
:100AB0009093C3088093C2080F2EF9E04F2EF02DBB
:100AC000E12CF12C0F2EF2E98F2EF5E09F2EF02D68
:100AD0000FEC18E00F2EFFE05F2EF02D0F2EF5EE3D
:100AE0006F2EF5E07F2EF02D0F2EF6EF2F2EF5E076
:100AF0003F2EF02D60C1E1E0F0E0EC0FFD1FEE0DA8
:100B0000FF1D608170E080E090E0D9D72091CB0894
:100B10003091CC084091CD085091CE080E94EB0D49
:100B2000A0D76B017093BC086093BB08E6EFF1E0BF
:100B3000EC0FFD1FEE0DFF1D608170E080E090E086
:100B4000BED72091CB083091CC084091CD08509170
:100B5000CE080E94EB0D85D77093B9086093B80852
:100B6000CD2809F432C16115710509F42EC1FF9237
:100B7000EF929F928F921F930F930E947E0E82E0BE
:100B800008DE0F900F900F900F900F900F908091B4
:100B9000B508813059F4E7EAF5E0D801852D0190D8
:100BA0000D928A95E1F781E0F4DD0AC0E6EBF5E00D
:100BB000D801852D01900D928A95E1F781E0E9DD5C
:100BC000E5ECF5E0D801852D01900D928A95E1F7CD
:100BD00083E0DFDD8091BC088F938091BB088F9309
:100BE0008091C3088F938091C2088F93A4EDB5E0E4
:100BF000BF93AF931F930F930E947E0E84E0C9DDD5
:100C00008091C5089091B9089F939091B8089F93DF
:100C10009091B3089F939091B2089F931F928F93E6
:100C20007F926F921F930F930E947E0E85E0B1DD3D
:100C30008091C1081F928F938091B7088F93809104
:100C4000B6088F933F922F921F930F930E947E0EB0
:100C500086E09FDD6091BB087091BC0880E090E069
:100C60002CD75B016C0120E030E040E252E460915F
:100C7000CB087091CC088091CD089091CE08ABD76D
:100C80009B01AC01C601B50182D6E6D60FB6F89439
:100C9000DEBF0FBECDBF2091B2083091B30826173A
:100CA000370794F58091C408813009F084C083E04F
:100CB00014DD1F924F92A7E0B6E0BF93AF931F934E
:100CC0000F930E947E0E82E064DDE8E1F6E0D80139
:100CD00081E101900D928A95E1F783E05ADD4A9413
:100CE0000F900F900F900F900F900F9009F46DC020
:100CF0001092C408FFEF27E833E1F1502040304064
:100D0000E1F700C0000057C0C70101962091C50857
:100D1000223021F48B30910508F00A972091C50804
:100D2000233029F47C01AAE0EA0EF11C01C07C0109
:100D30008091C508813039F4B2E0EB16F10418F067
:100D4000E1E0EE1AF10884E0F1DB9093C3088093B0
:100D5000C208BC018091BB089091BC088BD39093D2
:100D6000B7088093B608FFEF29E638E1F15020403C
:100D70003040E1F700C000008091B6089091B708BC
:100D8000A6E8B0E011969C938E9385E0CFDB90931C
:100D9000B3088093B2082091C608213061F4BC01E9
:100DA0008091B8089091B908F7D48093C1088093D6
:100DB000B4081092C6088091C508853008F09BCE13
:100DC0008091C508843008F496CE10928700109266
:100DD00086001092B40880E099DC82E07EDCC65187
:100DE000DC4F0FB6F894DEBF0FBECDBFDF91CF91C1
:100DF0001F910F91FF90EF90DF90CF90BF90AF9039
:100E00009F908F907F906F905F904F903F902F902A
:100E1000089562D28FE7C7D0D4D08CE890E0E4D1B7
:100E2000F7D1DDDB79DC58D2CFECD8E00F2EFFE034
:100E3000FF2EF02D04E716E085E078DB9093B308F1
:100E40008093B20884E072DB9093C3088093C20859
:100E5000E9E2F6E0DE018F2D01900D928A95E1F72F
:100E600081E097DCE8E3F6E0DE018F2D01900D9242
:100E70008A95E1F782E08DDCE7E4F6E0DE018F2D74
:100E800001900D928A95E1F783E083DCE6E5F6E0D8
:100E9000DE018F2D01900D928A95E1F784E079DCD7
:100EA000E5E6F6E0DE018F2D01900D928A95E1F7DF
:100EB00085E06FDC8091B3088F938091B2088F93A7
:100EC0008091C3088F938091C2088F931F930F93D3
:100ED000DF93CF9313D786E05CDC8091C5082DB7F4
:100EE0003EB7285F3F4F0FB6F8943EBF0FBE2DBFF1
:100EF000823079F018F4813031F03AC0833081F0DB
:100F0000843011F135C01092B5085ADC27DD59D074
:100F100035C081E08093B50853DC20DD52D02EC06F
:100F2000E8E8F6E0DE018F2D01900D928A95E1F759
:100F300083E02FDC3FEF87E893E131508040904021
:100F4000E1F700C000001AC0E7E9F6E0DE018F2DEE
:100F500001900D928A95E1F784E01BDC2FEF37E8D2
:100F600083E1215030408040E1F700C0000006C01E
:100F70008FEC97E00197F1F700C000009FEF20E7AA
:100F800032E0915020403040E1F700C0000054CFE3
:100F9000C698613011F4C79A01C0C7988FB9779B82
:100FA000FECFC69A0895CF93C82F60E081E2F0DFAC
:100FB00060E08C2F8068ECDF60E080E2E9DFCF91B9
:100FC000089588EF91E0EEEAF6E0DF019C011D92C2
:100FD00021503040E1F71092AB061092AA0687EF3D
:100FE00091E09093A9068093A80681E08093A706DC
:100FF00008958F30E0F46730E0F490E001979C01B1
:10100000220F331F820F931F880F991F70E06150CA
:10101000710944E5469F9001479F300D1124820FCE
:10102000931F9093AD068093AC0680E0089581E015
:10103000089581E008951F93CF93DF932091AC062C
:101040003091AD064091AA065091AB0624173507A2
:1010500024F43093AB062093AA0690EE960F9C35AD
:1010600008F06CE5813021F52091AC063091AD0699
:10107000E62FF0E0B097CF01880F991F880F991FD6
:10108000E80FF91FEC57FD4FD901A255B94FC9011F
:101090008D54994F4491440F4D933196A817B90739
:1010A000C9F72B5F3F4F3093AD062093AC0673C05A
:1010B000823009F070C0C901845591094091AA0697
:1010C0005091AB068417950724F49093AB06809358
:1010D000AA0699230CF483C0E62FF0E0B097CF0165
:1010E000880F991F880F991FE80FF91FEC57FD4FC4
:1010F000D901A55AB94FC9018B59994F18E14491AB
:10110000440F542F5470652F660F560F550F550F0F
:10111000642F6270762F770F670F660F562B742F30
:101120007870719F702D1124572B42954F70642F4A
:101130006170762F770F670F742F7270C72FCC0FE7
:101140007C0F770F762B642F6470C62FCC0F6C0F3B
:10115000C62FCC0FCC0F672F6C2B4870419FC02D32
:101160001124462F4C2BED01219758835C93CC5AC8
:10117000DF4F48832196488331961296A817B90706
:1011800009F0BDCFC9010B9668EF71E087D5909348
:10119000AD068093AC068091AC069091AD0620918F
:1011A000A8063091A9062817390724F49093A906B8
:1011B0008093A806FC01E255F94F1082873F21E099
:1011C000920731F41092AD061092AC0682E008C08E
:1011D00001969093AD068093AC0680E001C081E05B
:1011E000DF91CF911F91089548EF51E0BC018EEA45
:1011F00096E07BD51092AB061092AA0687EF91E09D
:101200009093A9068093A80681E08093A70608958D
:101210000F931F93CF93DF938091AA069091AB0613
:1012200099232CF41092AB061092AA0609C0883FAD
:10123000914034F087EF91E09093AB068093AA063B
:101240008091A8069091A90699232CF41092A906E2
:101250001092A80609C0883F914034F087EF91E0D2
:101260009093A9068093A806C091AA06D091AB06D8
:10127000CE0164E570E012D5162F60E0806888DE4C
:1012800060E0812F806484DE8091A8069091A90699
:101290008C179D0784F08E010255194F61E0F8010B
:1012A00081918F0175DE21968091A8069091A90603
:1012B0008C179D079CF787EF91E09093AB06809386
:1012C000AA061092A9061092A8061092A706DF910E
:1012D000CF911F910F910895929A87B3876F87BB23
:1012E0008A9ABB98C59AC49A9298929A80E58DB9C9
:1012F000C69A60E081E24CDE60E088EC49DE60E0A6
:1013000086E046DE60E083E143DE60E080E240DECE
:1013100060E08CE03DDE88EF91E09093AB06809337
:10132000AA061092A9061092A8064BDE71CF089566
:1013300080E090E0A0E8BFE380932709909328091C
:10134000A0932909B0932A092AE02093DC082AE017
:1013500030E030933A092093390925E030E03093AA
:10136000F0082093EF0824E630E03093340920930E
:10137000330940E050E060E371E440935209509338
:101380005309609354097093550940E050E060E4BC
:1013900071EC40930D0950930E0960930F097093FF
:1013A000100980932F0990933009A0933109B093CD
:1013B000320980E090E0AFE2B3E480933F0990937C
:1013C0004009A0934109B093420980E090E0A1E177
:1013D000B3EC8093070990930809A0930909B0938F
:1013E0000A0980E090E0A0EAB1E48093E3089093DA
:1013F000E408A093E508B093E60889EE92EAABE82A
:10140000BFEB8093470990934809A0934909B09393
:101410004A098CE89EE2AAEBBDE3809358099093B9
:101420005909A0935A09B0935B0983EA9BE8AEE798
:10143000B1E48093FF0890930009A0930109B09351
:1014400002098AEB98EEA2E5B1EC80931F09909314
:101450002009A0932109B09322098FE29AEBA8EE0C
:10146000BFE38093350990933609A0933709B09371
:10147000380908954F925F926F927F92AF92BF9218
:10148000CF92DF92EF92FF920F931F93CF93DF9350
:101490009B01C0916409D0916509D0932E09C09336
:1014A0002D090091130910911409109365090093F7
:1014B0006409E0901509F0901609F0920409E09291
:1014C000030960915609709157097093160960934A
:1014D00015095C01A21AB30AB0921409A09213096B
:1014E00040904709509048096090490970904A0916
:1014F00077FA709477F87094882777FD8095982F05
:10150000DED29B01AC01C301B20165D32B013C01CA
:10151000B701882777FD8095982FD1D2209158095F
:101520003091590940915A0950915B0954D39B015C
:10153000AC01C301B2012BD26B017C01B50188273C
:1015400077FD8095982FBBD22091FF08309100093C
:1015500040910109509102093ED39B01AC01C701A2
:10156000B60116D26B017C01B801882777FD809502
:10157000982FA5D220911F0930912009409121096F
:101580005091220928D39B01AC01C701B60100D2BA
:101590006B017C01BE01882777FD8095982F8FD243
:1015A0002091350930913609409137095091380919
:1015B00012D39B01AC01C701B601EAD14DD29B0108
:1015C0007093570960935609293E83E038073CF031
:1015D00088EE93E0909357098093560906C0332311
:1015E00024F4109257091092560980E090E0A0E888
:1015F000BFE38093600990936109A0936209B0935F
:1016000063098091560990915709DF91CF911F91FD
:101610000F91FF90EF90DF90CF90BF90AF907F90B1
:101620006F905F904F9008958DE292EBA5E0B1E44A
:101630008093F1089093F208A093F308B093F40814
:101640008AE080934B0987E390E0909306098093AA
:10165000050981E090E0909312098093110990931D
:10166000DE088093DD0888EB9EE1A9EAB2E480936E
:10167000190990931A09A0931B09B0931C0988EBD0
:101680009EE1ABEAB2EC8093DF089093E008A09370
:10169000E108B093E20880E090E0A0E8BFE3809327
:1016A000600990936109A0936209B093630981E195
:1016B0009BEBA7EAB5E48093430990934409A09378
:1016C0004509B09346098FE391EFA3E9B5EC809308
:1016D000F5089093F608A093F708B093F80880E017
:1016E00090E0A2E8B2E480935C0990935D09A09336
:1016F0005E09B0935F0983E893E8A1E8BFEB8093AC
:10170000F9089093FA08A093FB08B093FC0884E8CA
:1017100091ECA1E4BCE380934E0990934F09A09310
:101720005009B093510985EA95EEADE7B2E4809394
:10173000230990932409A0932509B09326098BE6E9
:1017400091EFAFE5B2EC80933B0990933C09A093F5
:101750003D09B0933E098AE898ECA4E4BFE3809386
:10176000EB089093EC08A093ED08B093EE0810926C
:10177000E8081092E70810922C0910922B09109299
:10178000FE081092FD0810921E0910921D09109279
:10179000EA081092E90808954F925F926F927F9243
:1017A000AF92BF92CF92DF92EF92FF920F931F936F
:1017B000CF93DF939B01C0912B09D0912C09D0933B
:1017C000E808C093E70800911709109118091093D1
:1017D0002C0900932B09E0901D09F0901E09F0924E
:1017E000FE08E092FD086091E9087091EA087093A4
:1017F0001E0960931D095C01A21AB30AB092180970
:10180000A09217094090F9085090FA086090FB08E0
:101810007090FC0877FA709477F87094882777FDB9
:101820008095982F4CD19B01AC01C301B201D3D15B
:101830002B013C01B701882777FD8095982F3FD178
:1018400020914E0930914F09409150095091510912
:10185000C2D19B01AC01C301B20199D06B017C01E3
:10186000B501882777FD8095982F29D120912309EC
:10187000309124094091250950912609ACD19B0152
:10188000AC01C701B60184D06B017C01B801882787
:1018900077FD8095982F13D120913B0930913C0919
:1018A00040913D0950913E0996D19B01AC01C70181
:1018B000B6016ED06B017C01BE01882777FD809553
:1018C000982FFDD02091EB083091EC084091ED0865
:1018D0005091EE0880D19B01AC01C701B60158D0F0
:1018E000BBD07093EA086093E9086F3F710541F03F
:1018F0003CF08FEF90E09093EA088093E90806C0EF
:10190000772324F41092EA081092E9088091E908FC
:10191000DF91CF911F910F91FF90EF90DF90CF90CB
:10192000BF90AF907F906F905F904F90089583EC41
:1019300087B9369A3699FECF84B195B19C01285F5C
:10194000324023313105B8F022503F4F2331310569
:10195000A0F022503F4F2331310588F0009789F0E5
:10196000265A31402331310570F08055914043971C
:1019700060F486E0089581E0089582E0089583E0B0
:10198000089584E0089585E0089580E00895505812
:10199000BB27AA270ED0E5C0D6D030F0DBD020F090
:1019A00031F49F3F11F41EF4CBC00EF4E095E7FB39
:1019B000C1C0E92FE7D080F3BA1762077307840725
:1019C000950718F071F49EF5FFC00EF4E0950B2E0C
:1019D000BA2FA02D0B01B90190010C01CA01A00181
:1019E0001124FF27591B99F0593F50F4503E68F1DC
:1019F0001A16F040A22F232F342F4427585FF3CF1D
:101A0000469537952795A795F0405395C9F77EF4ED
:101A10001F16BA0B620B730B840BBAF09150A1F036
:101A2000FF0FBB1F661F771F881FC2F70EC0BA0FBC
:101A3000621F731F841F48F4879577956795B79544
:101A4000F7959E3F08F0B3CF9395880F08F099273C
:101A5000EE0F97958795089504D06894B111B5C09D
:101A6000089598D088F09F5790F0B92F9927B751D3
:101A7000A0F0D1F0660F771F881F991F1AF0BA9552
:101A8000C9F712C0B13081F09FD0B1E008959CC079
:101A9000672F782F8827B85F39F0B93FCCF3869548
:101AA00077956795B395D9F73EF4909580957095A5
:101AB00061957F4F8F4F9F4F0895E89409C097FB22
:101AC0003EF490958095709561957F4F8F4F9F4F15
:101AD0009923A9F0F92F96E9BB279395F695879559
:101AE00077956795B795F111F8CFFAF4BB0F11F41C
:101AF00060FF1BC06F5F7F4F8F4F9F4F16C08823C3
:101B000011F096E911C0772321F09EE8872F762FF8
:101B100005C0662371F096E8862F70E060E02AF039
:101B20009A95660F771F881FDAF7880F9695879525
:101B300097F9089597F99F6780E870E060E008954D
:101B40009FEF80EC089500240A94161617061806D5
:101B50000906089500240A941216130614060506B1
:101B60000895092E0394000C11F4882352F0BB0F42
:101B700040F4BF2B11F460FF04C06F5F7F4F8F4FA5
:101B80009F4F089557FD9058440F551F59F05F3FE0
:101B900071F04795880F97FB991F61F09F3F79F08F
:101BA00087950895121613061406551FF2CF469511
:101BB000F1DF08C0161617061806991FF1CF869593
:101BC0007105610508940895E894BB276627772777
:101BD000CB0197F908950BD0C4CFB5DF28F0BADF59
:101BE00018F0952309F0A6CFABCF1124EECFCADFB2
:101BF000A0F3959FD1F3950F50E0551F629FF00120
:101C0000729FBB27F00DB11D639FAA27F00DB11D78
:101C1000AA1F649F6627B00DA11D661F829F222701
:101C2000B00DA11D621F739FB00DA11D621F839F88
:101C3000A00D611D221F749F3327A00D611D231F5E
:101C4000849F600D211D822F762F6A2F11249F57AC
:101C500050408AF0E1F088234AF0EE0FFF1FBB1FCF
:101C6000661F771F881F91505040A9F79E3F51056E
:101C700070F060CFAACF5F3FECF3983EDCF386951F
:101C800077956795B795F795E7959F5FC1F7FE2B19
:101C9000880F911D9695879597F9089597FB072EC4
:101CA00016F4009406D077FD08D00BD007FC05D0C1
:101CB0003EF4909581959F4F0895709561957F4F63
:101CC0000895AA1BBB1B51E107C0AA1FBB1FA61783
:101CD000B70710F0A61BB70B881F991F5A95A9F7D5
:101CE00080959095BC01CD010895FB01DC0102C0F7
:101CF00005900D9241505040D8F708950F931F93CF
:101D0000CF93DF93CDB7DEB72E970FB6F894DEBF33
:101D10000FBECDBF0D891E8986E08C831A8309838F
:101D20008FEF9FE79E838D83AE01475E5F4F6F8984
:101D3000788DCE01019610D0EF81F885E00FF11F6C
:101D400010822E960FB6F894DEBF0FBECDBFDF9186
:101D5000CF911F910F9108952F923F924F925F92D2
:101D60006F927F928F929F92AF92BF92CF92DF92AB
:101D7000EF92FF920F931F93CF93DF93CDB7DEB710
:101D80002C970FB6F894DEBF0FBECDBF7C016B0160
:101D90008A01FC0117821682838181FFB0C1CE01C6
:101DA00001964C01F7019381F60193FD859193FF14
:101DB00081916F01882309F49EC1853239F493FD26
:101DC000859193FF81916F01853221F4B70190E0F5
:101DD000C7D1E8CF512C312C20E02032A0F48B3237
:101DE00069F030F4803259F0833269F420612CC0FC
:101DF0008D3239F0803339F4216026C022602460AE
:101E000023C0286021C027FD27C030ED380F3A30AD
:101E100078F426FF06C0FAE05F9E300D1124532EA1
:101E200013C08AE0389E300D1124332E20620CC07E
:101E30008E3221F426FD5FC1206406C08C3611F479
:101E4000206802C0883641F4F60193FD859193FF26
:101E500081916F018111C1CF982F9F7D955493304F
:101E600028F40C5F1F4FFFE3F9830DC0833631F078
:101E7000833771F0833509F057C021C0F8018081A4
:101E800089830E5F1F4F44244394512C540114C086
:101E90003801F2E06F0E711CF801A080B18026FFBE
:101EA00003C0652D70E002C06FEF7FEFC5012C8786
:101EB0004CD12C0183012C852F77222E16C038019E
:101EC000F2E06F0E711CF801A080B18026FF03C004
:101ED000652D70E002C06FEF7FEFC5012C872AD11E
:101EE0002C012C852068222E830123FC19C0832D10
:101EF00090E048165906A0F4B70180E290E030D196
:101F00003A94F5CFF50127FC859127FE81915F0179
:101F1000B70190E025D131103A94F1E04F1A510801
:101F20004114510479F7DEC0843611F0893631F559
:101F3000F80127FF07C060817181828193810C5F66
:101F40001F4F08C060817181882777FD8095982F89
:101F50000E5F1F4F2F76B22E97FF09C09095809588
:101F6000709561957F4F8F4F9F4F2068B22E2AE06A
:101F700030E0A40127D1A82EA81843C0853729F442
:101F80002F7EB22E2AE030E025C0F22FF97FBF2E3F
:101F90008F36C1F018F4883579F0ADC0803719F06C
:101FA000883721F0A8C02F2F2061B22EB4FE0DC0BB
:101FB0008B2D8460B82E09C024FF0AC09F2F966025
:101FC000B92E06C028E030E005C020E130E002C0B4
:101FD00020E132E0F801B7FE07C0608171818281A3
:101FE00093810C5F1F4F06C06081718180E090E09B
:101FF0000E5F1F4FA401E6D0A82EA818FB2DFF7777
:10200000BF2EB6FE0BC02B2D2E7FA51450F4B4FEB0
:102010000AC0B2FC08C02B2D2E7E05C07A2C2B2DB9
:1020200003C07A2C01C0752C24FF0DC0FE01EA0DFF
:10203000F11D8081803311F4297E09C022FF06C082
:102040007394739404C0822F867809F0739423FDEF
:1020500012C020FF06C05A2C731418F4530C5718E2
:10206000732C731460F4B70180E290E02C8778D071
:1020700073942C85F6CF731410F4371801C0312CEB
:1020800024FF11C0B70180E390E02C8769D02C8534
:1020900022FF16C021FF03C088E590E002C088E758
:1020A00090E0B7010CC0822F867851F021FD02C06C
:1020B00080E201C08BE227FD8DE2B70190E050D0B5
:1020C000A51430F4B70180E390E04AD05A94F8CFD9
:1020D000AA94F401EA0DF11D8081B70190E040D08F
:1020E000A110F6CF332009F45DCEB70180E290E075
:1020F00037D03A94F7CFF7018681978102C08FEFEE
:102100009FEF2C960FB6F894DEBF0FBECDBFDF91C8
:10211000CF911F910F91FF90EF90DF90CF90BF90E4
:10212000AF909F908F907F906F905F904F903F9077
:102130002F900895FC010590615070400110D8F770
:10214000809590958E0F9F1F0895FC0161507040FF
:1021500001900110D8F7809590958E0F9F1F0895DC
:102160000F931F93CF93DF93182F092FEB018B81D0
:1021700081FD03C08FEF9FEF20C082FF10C04E8112
:102180005F812C813D81421753077CF4E881F981FE
:102190009F012F5F3F4F39832883108306C0E88556
:1021A000F985812F0995892B29F72E813F812F5F92
:1021B0003F4F3F832E83812F902FDF91CF911F912F
:1021C0000F910895FA01AA27283051F1203181F1A9
:1021D000E8946F936E7F6E5F7F4F8F4F9F4FAF4F2F
:1021E000B1E03ED0B4E03CD0670F781F891F9A1F42
:1021F000A11D680F791F8A1F911DA11D6A0F711DF6
:10220000811D911DA11D20D009F468943F912AE001
:10221000269F11243019305D3193DEF6CF010895E9
:10222000462F4770405D4193B3E00FD0C9F7F6CF1A
:10223000462F4F70405D4A3318F0495D31FD4052E2
:10224000419302D0A9F7EACFB4E0A6959795879578
:1022500077956795BA95C9F7009761057105089557
:102260009B01AC010A2E0694579547953795279503
:10227000BA95C9F7620F731F841F951FA01D08959B
:04228000F894FFCF00
:1022840028282828282828282828282828282828CA
:1022940028282828282828282828282828282828BA
:1022A40028282828282828282828282828282828AA
:1022B400282828282828282828282828282828289A
:1022C400282828282828282828282828282828288A
:1022D400282828282828282828282828282828287A
:1022E400282828282828282828282828282828286A
:1022F400282828282828282828282828282828285A
:102304002828282828282828282828282828282849
:102314002828282828282828282828282828282839
:10232400323C46505A64646464646E6E6E6E6E78B9
:1023340078787D7D82838384848585868687878873
:102344008889898A8A8B8B8C8C8D8D8E8E8F8F90C9
:102354009091919292939394949595969697979839
:102364009899999A9A9B9B9C9C9D9D9E9E9F9F9FAA
:10237400A0A0A0A1A1A1A1A2A2A2A3A3A3A4A4A43A
:10238400A4A5A5A5A6A6A6A7A7A7A7A8A8A8A9A9DE
:10239400A9AAAAAAAAABABABACACACADADADADAE81
:1023A400AEAEAFAFAFB0B0B0B0B1B1B1B2B2B2B324
:1023B400B3B3B3B4B4B4B5B5B5B6B6B6B6B7B7B7C8
:1023C400B8B8B8B9B9B9BABABABBBBBCBCBCBDBD64
:1023D400BDBEBEBEBFBFBFC0C0C0C1C1C1C2C2C3FB
:1023E400C3C3C4C4C4C5C5C5C6C6C6C7C7C7C8C891
:1023F400C8C9C9CACACACBCBCBCCCCCCCDCDCDCE27
:10240400CECECFCFCFD0D0D1D1D1D2D2D2D3D3D3BD
:10241400D4D4D4D5D5D5D6D6D6D7D7D8D8D8D9D953
:10242400D9DADADADBDBDBDCDCDCDDDDDDDEDEDEEB
:10243400DFDFDFDFE0E0E0E1E1E1E1E1E1E1E1E193
:10244400E1E1E1E1E1E1E1E1E1E1E1E1E1E1E1E178
:10245400E1E1E1E1E1E128282828282828282828A2
:1024640028282828282828282828282828282828E8
:1024740028282828002829292A2A2B2B2C2C2D2DE2
:102484002E2E2F2F30303131323233333434353530
:1024940036363737383839393A3A3B3B3C3C3D3DA0
:1024A4003E3E3F3F40404141424243434444454510
:1024B40046464747484849494A4A4B4B4C4C4D4D80
:1024C4004E4E4F4F505051515252535354545555F0
:1024D40056565757585859595A5A5B5B5C5C5D5D60
:1024E4005E5E5F5F606061616262636364646565D0
:1024F40066666767686869696A6A6B6B6C6C6D6D40
:102504006E6E6F6F707071717272737374747575AF
:1025140076767777787879797A7A7B7B7C7C7D7D1F
:102524007E7E7F7F8080818182828383848485858F
:1025340086868787888889898A8A8B8B8C8C8D8DFF
:102544008E8E8F8F9090919192929393949495956F
:1025540096969797989899999A9A9B9B9C9C9D9DDF
:102564009E9E9F9F9FA0A0A0A0A0A0A0A0A0A0A06E
:10257400A0A0A0A0A0A0A0A0A0A0A0A0A0A0A0A057
:10258400A0A0A0A0A0A0A0A0A0A0A0A0A0A0A0A047
:10259400A0A0A5A5A5A5A5A5A5A5A5A5A5A5A5A5F1
:1025A400A5AAAAAAAAAAAFAFAFAFAFB4B4B4B4B441
:1025B400B4B4B4B4B4B4B4B4B4B4B9B9B9B9B9B9B9
:1025C400B9B9B9B9BEBEBEBEBEBEBEBEBEBEBEBE3B
:1025D400BEBEBEBEBEBEBEBEBEBEBEBEBEBEBEBE17
:1025E400BEBEBEBEBEBEBEBEBEBEBEBEBEBEBEBE07
:1025F400BEBEBEBEBEBEBEBEBEBEBEBEBEBEBEBEF7
:10260400BEBEBEBEBEBEBEBEBEBEBEBEBEBEBEBEE6
:10261400BEBEBEBEBEBEBEBEBEBEBEBEBEBEBEBED6
:10262400BEBEBEBEBEBEBEBEBEBEBEBEBEBEBEBEC6
:10263400BEBEBEBEBEBEBEBEBEBEBEBEBEBEBEBEB6
:10264400BEBEBEBEBEBEBEBEBEBEBE282828282894
:1026540028282828282828282828282828282828F6
:10266400282828282828282828002020504F444794
:10267400525A4557414E4945003E20504F44475217
:102684005A4557414E4945003E3E504F4447525AE1
:102694004557414E494500203E504F4447525A4504
:1026A40057414E494500543220202020202020202C
:1026B40020202020202000256420202020202020ED
:1026C40020202020202020003E3E504F4D494E49DE
:1026D40045544F3C3C002020204C55544F57414E0C
:1026E40049452020003E20204C55544F57414E4927
:1026F40045203C003E3E204C55544F57414E4945E1
:102704003C3C003E3E3E4C55544F57414E49453C9F
:102714003C00435A4153203D2025642020202020A2
:1027240020202020202000545F4D41585F32343552
:102734005F6E50622000545F4D41585F3232355F06
:102744005062202000543120547A5F5F5F5432205D
:10275400547A200025642025642020202020202075
:1027640020202020002564202020202564202564AA
:1027740020202020200077313D2564202077323D21
:10278400256420202020004B4F4E494543205A41C8
:10279400203D20256420200050524F424C454D20BE
:1027A400212121202020202000312E4C55544F5728
:1027B400414E494520506200322E4C55544F5741EA
:1027C4004E2E2050626600332E204E494320202096
:1027D400202020202000342E204E49432020202079
:1027E40020202020002D2D2D2D2D2D2D2D2D2D2D76
:1027F4002D2D2D0054313D2564202054323D256477
:1028040020202020202020003E3E50525A59434987
:10281400534B20333C3C003E3E50525A594349539B
:062824004B20343C3C0097
:00000001FF
