S01A0000736F6C6465725F7469705F73746174696F6E2E7372656374
S113000025C2000041C200003FC200003DC2000002
S11300103BC2000039C2000037C2000035C20000F4
S113002033C2000031C200002FC200002DC2000004
S11300302BC2000029C2000027C20000FFC200003A
S113004023C2000021C200001FC200001DC2000024
S11300501BC2000019C2000017C2000015C2000034
S113006013C2000011C200000FC200000DC2000044
S11300700BC2000009C2000007C2000005C2000054
S113008003C2000001C20000FFC100000000000024
S1130090000000000000000000000000000000005C
S11300A0000000000000000000000000000000004C
S11300B0000000000000000000000000000000003C
S11300C0000000000000000000000000000000002C
S11300D0000000000000000000000000000000001C
S11300E0000000000000000000C02020202020208C
S11300F020202020C0000000000000000000F010BC
S1130100101010E00000F00000804040408000002B
S1130110804040408000008040404080000080409B
S113012040408000000000000000000000000000CB
S1130130000000000000000000000000000F11316A
S113014031D1F1D1D13111110F00000000000000B4
S113015000001F010101010000001F00000F121226
S1130160120B00000C12120A1F0000091212120CCA
S113017000000F1212120B0000000000000000002B
S1130180000000000000000000000000000000006B
S113019000F0188686E1F1E1E1861818F00000000D
S11301A0000000000000000060800080608000808B
S11301B0600040202020C00000E80020F82000005B
S11301C0000000000000000000000000000000002B
S11301D0000000000000000000000000000000001B
S11301E000000000000307070707070707070707C2
S11301F003000000000000000000000000030C03E6
S113020000030C030000060909050F00000F00009D
S11302100F080000000008000008000008000000AB
S113022000000000000000000000000000000000CA
S113023000000000000000000000000000000000BA
S113024000000000000000000000000000000000AA
S1130250000000000000000000000000000000009A
S1130260000000000000000000000000000000008A
S1130270000000000000000000000000000000007A
S113028000000000000000000000002F0000000734
S1130290000700147F147F14242A7F2A12C4C81074
S11302A0264636495522500005030000001C224111
S11302B0000041221C0014083E081408083E0808E7
S11302C0000050300010101010100060600000207A
S11302D0100804023E5149453E00427F40004261FD
S11302E05149462141454B311814127F1027454589
S11302F045393C4A494930017109050336494949A0
S113030036064949291E00363600000056360000DC
S11303100814224100141414141400412214080275
S113032001510906324959513E7E1111117E7F490E
S11303304949363E414141227F4141221C7F49497E
S113034049417F090909013E4149497A7F08080862
S11303507F00417F41002040413F017F081422413A
S11303607F404040407F020C027F7F0408107F3EA4
S11303704141413E7F090909063E4151215E7F0901
S1130380192946464949493101017F01013F40404D
S1130390403F1F2040201F3F4038403F6314081453
S11303A06307087008076151494543007F414100D4
S11303B0552A552A550041417F0004020102044098
S11303C040404040000102040020545454787F48C7
S11303D04444383844444420384444487F385454CE
S11303E05418087E0901020C5252523E7F0804043C
S11303F07800447D40002040443D007F10284400A4
S113040000417F40007C041804787C080404783898
S1130410444444387C14141408081414187C7C08CC
S11304200404084854545420043F4440203C4040B1
S1130430207C1C2040201C3C4030403C4428102898
S1130440440C5050503C4464544C440011241FBE8E
S1130450CFEFD0E1DEBFCDBF11E0A0E0B1E0ECE32F
S1130460FDE100E00BBF02C007900D92A637B10773
S1130470D9F724E0A6E7B1E001C01D92AB30B20782
S1130480E1F7ADD10C949C0EBBCD97B1906C97B9AC
S113049096B1976896B997B1987F892B87B9369AA0
S11304A03699FECF84B195B108954DB197E59DB9C4
S11304B098B321E030E002C0220F331F8A95E2F79F
S11304C0822F8095982398BB54E080E090E0DC0173
S11304D01FB8779BFECFBA2FA92F982F88276FB10B
S11304E0860F911DA11DB11D515091F738B3232BD7
S11304F028BB072E72E1B695A795979587957A95AF
S1130500D1F7702D95FF1DC0B095A095909581955C
S11305109F4FAF4FBF4F9F73AA27BB270296A11DC2
S1130520B11DB595A79597958795B595A795979579
S11305308795B095A095909581959F4FAF4FBF4FEC
S11305400BC00296A11DB11DB595A79597958795EA
S1130550B595A795979587954DB908959C0140E069
S113056050E060ED77E080E090E00E94700B822F15
S1130570203148F030E020513109C90199230CF4AD
S113058001969595879580937000089584EA8093E9
S11305907400E4E7F0E080818823ECF7089584E9AF
S11305A080937400E4E7F0E0808184FDFDCF08953A
S11305B08093730084E880937400E4E7F0E0808122
S11305C08823ECF7089520E4829FC00111248468F5
S11305D080937400E4E7F0E080818823ECF7809155
S11305E073000895A098A89A84B38C7F84BBA99AB9
S11305F084B3887F84BBAA9A84B3807F84BBAB9A7C
S1130600139A1B9814981C9AEBE8F0E08081836895
S11306108083EAE8F0E080818560808387B7806129
S113062087BF83B7886083BF83B7856083BF8FEF3D
S113063081BF87B7826087BF789408951F920F9215
S11306400FB60F9211240BB60F922F933F934F9333
S11306505F936F937F938F939F93AF93BF93EF9326
S1130660FF9380917701833270F10B9B8BC0809153
S113067082019091830190937F0180937E01109277
S113068083011092820110928101109280011092D4
S1130690770160918C0170918D0180917801909126
S11306A07901B9D490937B0180937A0180917A0186
S11306B090917B01909387008093860080917701CD
S11306C0833208F05FC08F5F8093770180E0DDDEC6
S11306D0909389018093880182E0D7DE2091840180
S11306E030918501820F931F90938501809384013B
S11306F0809176018F5F809376018431E0F02091C0
S1130700840130918501ADECBCEC0E948C0B929578
S113071082958F7089279F70892790938501809394
S11307208401809184019091850190938701809345
S1130730860110927601209182013091830180918B
S11307408801909189012817390748F4809188011C
S113075090918901909383018093820113C0209129
S113076080013091810180918201909183018217EF
S1130770930740F4809180019091810190938301CB
S11307808093820172D58093F703FF91EF91BF911B
S1130790AF919F918F917F916F915F914F913F9115
S11307A02F910F900BBE0F900FBE0F901F901895B6
S11307B00F931F93CF93DF93082FCDEFD3E011E076
S11307C0602F812FD3D1699181E0F2D1DED21F5FF6
S11307D01F30B1F7DF91CF911F910F91089502DF80
S11307E038D380E49DD1AAD18CE890E0BAD2CDD29E
S11307F02FEF30E782E0215030408040E1F700C025
S113080000009CD1C2D24FD38AE090E0909387003D
S1130810809386008EE591E090937901809378012E
S11308200F2E412CF0E85F2EF3EE6F2EF3E47F2EB3
S1130830F02DCDEFD3E010E10F2EF0E32F2EF1E0F9
S11308403F2EF02D0FE085E030DE90938B018093F6
S11308508A01FDD48093EA03609186017091870137
S113086080E090E011D62AE037ED43E25BE3C2D6A4
S113087020E030E040E851E4BDD621EB3FEB44EB0F
S11308805FE36ED526E636E646EE5FE301D54B011F
S11308905C016093F3037093F4038093F5039093E6
S11308A0F60360917E0170917F0180E090E0ECD5C9
S11308B02BE439E546E85BE39DD66B017C0160934C
S11308C0F8037093F9038093FA039093FB039B015D
S11308D0AC01C501B4018ED64B015C016093EF03FA
S11308E07093F0038093F1039093F203A7019601B0
S11308F0C701B6017FD69B01AC01C501B40130D557
S113090020E030E048EC52E475D66B017C01609342
S1130910E6037093E7038093E8039093E9039B0154
S1130920AC0168D627E137EB41ED58EB63D64B01B8
S11309305C012BEA3EE347E25FE3C701B6015AD606
S11309409B01AC01C501B401A3D42DE33AE047EF08
S113095052E49DD44B015C0120E030E0A901FCD4B9
S1130960882394F020E030E04AEF53E4C501B40159
S11309703DD618164CF08092EB039092EC03A092B3
S1130980ED03B092EE0308C04092EB035092EC03E7
S11309906092ED037092EE036091EB037091EC03AF
S11309A08091ED039091EE0343D570938D01609394
S11309B08C01C701B6013CD570937D0160937C0125
S11309C0E0E0F1E0DE01812F01900D928A95E1F7DC
S11309D081E090E0EDDEE0E1F1E0DE01812F0190C5
S11309E00D928A95E1F782E090E0E2DEE0E2F1E048
S11309F0DE01812F01900D928A95E1F783E090E06A
S1130A00D7DE20918C0130918D01809178019091F5
S1130A1079013F932F939F938F933F922F92DF936C
S1130A20CF93C8D684E090E0C3DE80918A01909190
S1130A308B019F938F938091EA031F928F93A3E47A
S1130A40B1E0BF93AF93DF93CF93B4D686E090E049
S1130A50AFDE8091F703ADB7BEB750960FB6F894EA
S1130A60BEBF0FBEADBF823081F018F4813031F0CB
S1130A703FC0833089F0843029F13AC02EE531E05B
S1130A80309379012093780139C08CE791E09093F9
S1130A9079018093780132C051D0E7E5F1E0DE01BD
S1130AA0802F01900D928A95E1F782E090E080DE3C
S1130AB09FEFA0E7B2E09150A040B040E1F700C042
S1130AC000001CC03BD0E6E6F1E0DE01802F01907F
S1130AD00D928A95E1F782E090E06ADE2FEF30E72D
S1130AE082E0215030408040E1F700C0000006C0A1
S1130AF0A3EFB1E01197F1F700C000008FE493EC8D
S1130B000197F1F700C000009ECEC698613011F441
S1130B10C49A01C0C4988FB9779BFECFC69A089532
S1130B20CF93C82F60E081E2F0DF60E08C2F806813
S1130B30ECDF60E080E2E9DFCF91089588EF91E097
S1130B40E5E9F1E0DF019C011D9221503040E1F71D
S1130B50109292011092910187EF91E0909390018D
S1130B6080938F0181E080938E0108958F30E0F4AB
S1130B706730E0F490E001979C01220F331F820F4D
S1130B80931F880F991F70E06150710944E5469FD7
S1130B909001479F300D1124820F931F909394016D
S1130BA08093930180E0089581E0089581E00895A1
S1130BB01F93CF93DF93209193013091940140913F
S1130BC09101509192012417350724F43093920136
S1130BD02093910190EE960F9C3508F06CE58130DE
S1130BE021F52091930130919401E62FF0E0B09724
S1130BF0CF01880F991F880F991FE80FF91FEC5731
S1130C00FD4FD901AB56BE4FC90186569E4F449144
S1130C10440F4D933196A817B907C9F72B5F3F4F7F
S1130C20309394012093930173C0823009F070C013
S1130C30C901845591094091910150919201841701
S1130C40950724F4909392018093910199230CF4D5
S1130C5083C0E62FF0E0B097CF01880F991F880F6B
S1130C60991FE80FF91FEC57FD4FD901AE5BBE4F3A
S1130C70C901845B9E4F18E14491440F542F547072
S1130C80652F660F560F550F550F642F6270762F20
S1130C90770F670F660F562B742F7870719F702D26
S1130CA01124572B42954F70642F6170762F770F64
S1130CB0670F742F7270C72FCC0F7C0F770F762BB2
S1130CC0642F6470C62FCC0F6C0FC62FCC0FCC0FC3
S1130CD0672F6C2B4870419FC02D1124462F4C2B3D
S1130CE0ED01219758835C93CC5ADF4F48832196BA
S1130CF0488331961296A817B90709F0BDCFC901E8
S1130D000B9668EF71E0D9D490939401809393018A
S1130D10809193019091940120918F0130919001E1
S1130D202817390724F49093900180938F01FC01D4
S1130D30EB56FE4F1082873F21E0920731F4109268
S1130D4094011092930182E008C00196909394015B
S1130D508093930180E001C081E0DF91CF911F91E6
S1130D60089548EF51E0BC0185E991E01AD510924D
S1130D7092011092910187EF91E0909390018093FA
S1130D808F0181E080938E0108950F931F93CF9379
S1130D90DF93809191019091920199232CF4109208
S1130DA092011092910109C0883F914034F087EF7D
S1130DB091E0909392018093910180918F019091A1
S1130DC0900199232CF41092900110928F0109C084
S1130DD0883F914034F087EF91E0909390018093A5
S1130DE08F01C0919101D0919201CE0164E570E030
S1130DF064D4162F60E0806888DE60E0812F806410
S1130E0084DE80918F01909190018C179D0784F06E
S1130E108E010B561E4F61E0F80181918F0175DE42
S1130E20219680918F01909190018C179D079CF7DA
S1130E3087EF91E090939201809391011092900139
S1130E4010928F0110928E01DF91CF911F910F911B
S1130E500895C09A87B3876787BBBB98C59AC09823
S1130E60C09A80E58DB9C69A60E081E24EDE60E00A
S1130E7088EC4BDE60E086E048DE60E083E145DE3E
S1130E8060E080E242DE60E08CE03FDE88EF91E0EB
S1130E9090939201809391011092900110928F018E
S1130EA04DDE73CF089580E090E0A0E0B0E480933D
S1130EB0B1039093B203A093B303B093B4038AE055
S1130EC080930A0480E090E0A0E4B1E48093AD0351
S1130ED09093AE03A093AF03B093B00380E090E08F
S1130EE0A0E4B0E48093A9039093AA03A093AB0376
S1130EF0B093AC0380E090E0A0EAB0E48093A50353
S1130F009093A603A093A703B093A80380E090E076
S1130F10A8EAB1E48093DD039093DE03A093DF039A
S1130F20B093E00380E090E0A0EBB1EC8093D903B0
S1130F309093DA03A093DB03B093DC0380E090E0AA
S1130F40A0E8BFE38093D5039093D603A093D7037F
S1130F50B093D80380E090E0A2ECB3E48093D10393
S1130F609093D203A093D303B093D40380E090E092
S1130F70A1E9B3EC8093CD039093CE03A093CF0368
S1130F80B093D00380E090E0A0EBB1E48093C90378
S1130F909093CA03A093CB03B093CC0382E698E169
S1130FA0A6E8BFEB8093C5039093C603A093C70341
S1130FB0B093C80381E39CE0A3E4BDE38093C10341
S1130FC09093C203A093C303B093C4038DE39FEC37
S1130FD0A3E9B1E48093BD039093BE03A093BF0340
S1130FE0B093C0038FEC93EFACE5B1EC8093B903FD
S1130FF09093BA03A093BB03B093BC0382E698E139
S1131000A6E8BFE38093B5039093B603A093B70318
S1131010B093B80308954F925F926F927F928F922C
S11310209F92AF92BF92CF92DF92EF92FF92CF93B3
S1131030DF93CDB7DEB728970FB6F894DEBF0FBEA7
S1131040CDBF20919D0330919E0340919F03509109
S1131050A00329833A834B835C832093A1033093B9
S1131060A2034093A3035093A403209199033091C6
S11310709A0340919B0350919C032D833E834F839D
S1131080588720939D0330939E0340939F0350936E
S1131090A00380908D0390908E03A0908F03B09056
S11310A090038092910390929203A0929303B09242
S11310B0940340909503509096036090970370902A
S11310C0980340928D0350928E0360928F03709226
S11310D09003861B970BBC01882777FD8095982F7A
S11310E0D5D16B017C016093990370939A0380932B
S11310F09B0390939C038091C5039091C603A09198
S1131100C703B091C8039C01AD015058C301B2019B
S113111071D22B013C012091C1033091C203409153
S1131120C3035091C403C501B40164D29B01AC0153
S1131130C301B201ACD04B015C012091BD033091DD
S1131140BE034091BF035091C003C701B60152D200
S11311509B01AC01C501B4019BD06B017C012091C2
S1131160B9033091BA034091BB035091BC036D8124
S11311707E818F8198853ED29B01AC01C701B60167
S113118087D06B017C012091B5033091B603409167
S1131190B7035091B80369817A818B819C812AD2EB
S11311A09B01AC01C701B60173D06B017C01609354
S11311B0950370939603809397039093980320E08C
S11311C030EC4FE754E412D218166CF480E090EC43
S11311D0AFE7B4E48093950390939603A0939703A9
S11311E0B093980315C020E030E048EC53E4C70105
S11311F0B601B2D0882364F480E090E0A8ECB3E4B4
S11312008093950390939603A0939703B0939803C8
S11312106091950370919603809197039091980340
S113122007D1CB0128960FB6F894DEBF0FBECDBF11
S1131230DF91CF91FF90EF90DF90CF90BF90AF9070
S11312409F908F907F906F905F904F900895CF9371
S113125084E690E083D99AD981E9AAD980E0B3D908
S1131260C82F9DD98C2FCF910895989B08C0999B26
S113127008C09A9B08C09B9908C084E0089581E047
S1131280089582E0089583E008958FEF08955058FB
S1131290BB27AA270ED070C161D130F066D120F0EF
S11312A031F49F3F11F41EF456C10EF4E095E7FBB0
S11312B04CC1E92F72D180F3BA1762077307840710
S11312C0950718F071F49EF58AC10EF4E0950B2E83
S11312D0BA2FA02D0B01B90190010C01CA01A00184
S11312E01124FF27591B99F0593F50F4503E68F1DF
S11312F01A16F040A22F232F342F4427585FF3CF20
S1131300469537952795A795F0405395C9F77EF4F0
S11313101F16BA0B620B730B840BBAF09150A1F039
S1131320FF0FBB1F661F771F881FC2F70EC0BA0FBF
S1131330621F731F841F48F4879577956795B79547
S1131340F7959E3F08F0B3CF9395880F08F099273F
S1131350EE0F979587950895D4D008F481E0089509
S11313600CD00AC102D140F0F9D030F021F45F3F33
S113137019F0EBC0511134C1EEC00FD198F3992389
S1131380C9F35523B1F3951B550BBB27AA27621745
S11313907307840738F09F5F5F4F220F331F441F8A
S11313A0AA1FA9F333D00E2E3AF0E0E830D09150C2
S11313B05040E695001CCAF729D0FE2F27D0660FAF
S11313C0771F881FBB1F261737074807AB07B0E8EE
S11313D009F0BB0B802DBF01FF2793585F4F2AF004
S11313E09E3F510568F0B1C0FBC05F3FECF3983EEF
S11313F0DCF3869577956795B795F7959F5FC9F761
S1131400880F911D9695879597F90895E1E0660FE9
S1131410771F881FBB1F621773078407BA0720F062
S1131420621B730B840BBA0BEE1F88F7E0950895CB
S1131430BCD088F09F5790F0B92F9927B751A0F0EE
S1131440D1F0660F771F881F991F1AF0BA95C9F754
S113145012C0B13081F0C3D0B1E00895C0C0672F8D
S1131460782F8827B85F39F0B93FCCF38695779504
S11314706795B395D9F73EF49095809570956195ED
S11314807F4F8F4F9F4F0895E89409C097FB3EF418
S113149090958095709561957F4F8F4F9F4F9923BD
S11314A0A9F0F92F96E9BB279395F695879577953B
S11314B06795B795F111F8CFFAF4BB0F11F460FFFB
S11314C01BC06F5F7F4F8F4F9F4F16C0882311F053
S11314D096E911C0772321F09EE8872F762F05C067
S11314E0662371F096E8862F70E060E02AF09A9502
S11314F0660F771F881FDAF7880F9695879597F9F7
S11315000895990F0008550FAA0BE0E8FEEF161690
S11315101706E807F907C0F012161306E407F507E3
S113152098F0621B730B840B950B39F40A2661F057
S1131530232B242B252B21F408950A2609F4A140FA
S1131540A6958FEF811D811D089597F99F6780E807
S113155070E060E008959FEF80EC089500240A9401
S11315601616170618060906089500240A9412167A
S11315701306140605060895092E0394000C11F4AD
S1131580882352F0BB0F40F4BF2B11F460FF04C05A
S11315906F5F7F4F8F4F9F4F089557FD9058440FB3
S11315A0551F59F05F3F71F04795880F97FB991FBE
S11315B061F09F3F79F0879508951216130614067B
S11315C0551FF2CF4695F1DF08C016161706180608
S11315D0991FF1CF86957105610508940895E894E3
S11315E0BB2766277727CB0197F908958ADF08F48C
S11315F08FEF08950BD0C0CFB1DF28F0B6DF18F01D
S1131600952309F0A2CFA7CF1124EACFC6DFA0F318
S1131610959FD1F3950F50E0551F629FF001729F83
S1131620BB27F00DB11D639FAA27F00DB11DAA1FA2
S1131630649F6627B00DA11D661F829F2227B00DEF
S1131640A11D621F739FB00DA11D621F839FA00D7A
S1131650611D221F749F3327A00D611D231F849FCA
S1131660600D211D822F762F6A2F11249F57504021
S11316708AF0E1F088234AF0EE0FFF1FBB1F661FBC
S1131680771F881F91505040A9F79E3F510570F075
S11316905CCFA6CF5F3FECF3983EDCF3869577955D
S11316A06795B795F795E7959F5FC1F7FE2B880F70
S11316B0911D9695879597F9089597FB072E16F433
S11316C0009406D077FD08D036D007FC05D03EF450
S11316D0909581959F4F0895709561957F4F0895DA
S11316E0052E97FB16F400940FD057FD05D037D084
S11316F007FC02D046F408C05095409530952195DA
S11317003F4F4F4F5F4F0895909580957095619529
S11317107F4F8F4F9F4F0895A29FB001B39FC00189
S1131720A39F700D811D1124911DB29F700D811D09
S11317301124911D0895AA1BBB1B51E107C0AA1FC8
S1131740BB1FA617B70710F0A61BB70B881F991F5E
S11317505A95A9F780959095BC01CD010895A1E211
S11317601A2EAA1BBB1BFD010DC0AA1FBB1FEE1F17
S1131770FF1FA217B307E407F50720F0A21BB30B62
S1131780E40BF50B661F771F881F991F1A9469F7DE
S113179060957095809590959B01AC01BD01CF013A
S11317A00895FB01DC0102C005900D9241505040A8
S11317B0D8F708950F931F93CF93DF93CDB7DEB778
S11317C02E970FB6F894DEBF0FBECDBF0D891E89CC
S11317D086E08C831A8309838FEF9FE79E838D8332
S11317E0AE01475E5F4F6F89788DCE01019610D0B0
S11317F0EF81F885E00FF11F10822E960FB6F89452
S1131800DEBF0FBECDBFDF91CF911F910F91089521
S11318102F923F924F925F926F927F928F929F92FC
S1131820AF92BF92CF92DF92EF92FF920F931F93EA
S1131830CF93DF93CDB7DEB72C970FB6F894DEBF06
S11318400FBECDBF7C016B018A01FC011782168299
S1131850838181FFB0C1CE0101964C01F7019381D0
S1131860F60193FD859193FF81916F01882309F41B
S11318709EC1853239F493FD859193FF81916F0167
S1131880853221F4B70190E0C7D1E8CF512C312C37
S113189020E02032A0F48B3269F030F4803259F029
S11318A0833269F420612CC08D3239F0803339F4ED
S11318B0216026C02260246023C0286021C027FD47
S11318C027C030ED380F3A3078F426FF06C0FAE02E
S11318D05F9E300D1124532E13C08AE0389E300DC4
S11318E01124332E20620CC08E3221F426FD5FC1F8
S11318F0206406C08C3611F4206802C0883641F496
S1131900F60193FD859193FF81916F018111C1CF00
S1131910982F9F7D9554933028F40C5F1F4FFFE35D
S1131920F9830DC0833631F0833771F0833509F0C4
S113193057C021C0F801808189830E5F1F4F442462
S11319404394512C540114C03801F2E06F0E711C01
S1131950F801A080B18026FF03C0652D70E002C0AD
S11319606FEF7FEFC5012C874CD12C0183012C85AF
S11319702F77222E16C03801F2E06F0E711CF80189
S1131980A080B18026FF03C0652D70E002C06FEF18
S11319907FEFC5012C872AD12C012C852068222EAB
S11319A0830123FC19C0832D90E048165906A0F446
S11319B0B70180E290E030D13A94F5CFF50127FCED
S11319C0859127FE81915F01B70190E025D1311007
S11319D03A94F1E04F1A51084114510479F7DEC0EA
S11319E0843611F0893631F5F80127FF07C060818C
S11319F07181828193810C5F1F4F08C06081718166
S1131A00882777FD8095982F0E5F1F4F2F76B22E73
S1131A1097FF09C090958095709561957F4F8F4F82
S1131A209F4F2068B22E2AE030E0A40127D1A82ECF
S1131A30A81843C0853729F42F7EB22E2AE030E05F
S1131A4025C0F22FF97FBF2E8F36C1F018F48835E8
S1131A5079F0ADC0803719F0883721F0A8C02F2F56
S1131A602061B22EB4FE0DC08B2D8460B82E09C047
S1131A7024FF0AC09F2F9660B92E06C028E030E0EC
S1131A8005C020E130E002C020E132E0F801B7FEF9
S1131A9007C060817181828193810C5F1F4F06C0F2
S1131AA06081718180E090E00E5F1F4FA401E6D059
S1131AB0A82EA818FB2DFF77BF2EB6FE0BC02B2D2A
S1131AC02E7FA51450F4B4FE0AC0B2FC08C02B2D1E
S1131AD02E7E05C07A2C2B2D03C07A2C01C0752CC8
S1131AE024FF0DC0FE01EA0DF11D8081803311F445
S1131AF0297E09C022FF06C07394739404C0822F08
S1131B00867809F0739423FD12C020FF06C05A2C76
S1131B10731418F4530C5718732C731460F4B7012E
S1131B2080E290E02C8778D073942C85F6CF7314E0
S1131B3010F4371801C0312C24FF11C0B70180E321
S1131B4090E02C8769D02C8522FF16C021FF03C0AA
S1131B5088E590E002C088E790E0B7010CC0822FCE
S1131B60867851F021FD02C080E201C08BE227FD9E
S1131B708DE2B70190E050D0A51430F4B70180E3B2
S1131B8090E04AD05A94F8CFAA94F401EA0DF11DDA
S1131B908081B70190E040D0A110F6CF332009F442
S1131BA05DCEB70180E290E037D03A94F7CFF701E9
S1131BB08681978102C08FEF9FEF2C960FB6F89421
S1131BC0DEBF0FBECDBFDF91CF911F910F91FF906C
S1131BD0EF90DF90CF90BF90AF909F908F907F90C9
S1131BE06F905F904F903F902F900895FC01059067
S1131BF0615070400110D8F7809590958E0F9F1F0B
S1131C000895FC016150704001900110D8F780954F
S1131C1090958E0F9F1F08950F931F93CF93DF937B
S1131C20182F092FEB018B8181FD03C08FEF9FEFEC
S1131C3020C082FF10C04E815F812C813D814217FC
S1131C4053077CF4E881F9819F012F5F3F4F39836B
S1131C502883108306C0E885F985812F0995892B8F
S1131C6029F72E813F812F5F3F4F3F832E83812FA2
S1131C70902FDF91CF911F910F910895FA01AA2718
S1131C80283051F1203181F1E8946F936E7F6E5FBB
S1131C907F4F8F4F9F4FAF4FB1E03ED0B4E03CD069
S1131CA0670F781F891F9A1FA11D680F791F8A1F4C
S1131CB0911DA11D6A0F711D811D911DA11D20D0B3
S1131CC009F468943F912AE0269F11243019305D6D
S1131CD03193DEF6CF010895462F4770405D41935E
S1131CE0B3E00FD0C9F7F6CF462F4F70405D4A33AB
S1131CF018F0495D31FD4052419302D0A9F7EACF73
S1131D00B4E0A6959795879577956795BA95C9F7A1
S1131D1000976105710508959B01AC010A2E069494
S1131D205795479537952795BA95C9F7620F731F4D
S10F1D30841F951FA01D0895F894FFCF98
S1131D3C3E3E54454D504552415455524520200089
S1131D4C20313A333830202020323A3335302000D9
S1131D5C2D2D2D2D2D2D2D2D2D2D2D2D2D2D2D00D0
S1131D6C3E3E2564203E3E25642020202020202059
S1131D7C20200054623D2564202054633D256420BA
S1131D8C202020202020003E3E50525A59434953D3
S1131D9C4B20333C3C003E3E50525A594349534B22
S1091DAC20343C3C000061
S9030000FC
