:10000000A6C20000C2C20000C0C20000BEC2000002
:10001000BCC20000EAC20000B8C20000B6C20000C4
:10002000B4C2000008C30000B0C20000AEC20000AD
:10003000ACC20000AAC20000A8C20000A6C2000014
:10004000A4C20000A2C20000A0C200009EC2000024
:100050009CC200009AC2000098C2000096C2000034
:1000600094C2000092C2000090C200008EC2000044
:100070008CC200008AC2000088C2000086C2000054
:1000800084C2000082C2000080C2000000000000A4
:100090000000000000000000000000000000000060
:1000A0000000000000000000000000000000000050
:1000B0000000000000000000000000000000000040
:1000C0000000000000000000000000000000000030
:1000D0000000000000000000000000000000000020
:1000E000000000000000000000C020202020202090
:1000F00020202020C0000000000000000000F010C0
:10010000101010E00000F00000804040408000002F
:10011000804040408000008040404080000080409F
:1001200040408000000000000000000000000000CF
:10013000000000000000000000000000000F11316E
:1001400031D1F1D1D13111110F00000000000000B8
:1001500000001F010101010000001F00000F12122A
:10016000120B00000C12120A1F0000091212120CCE
:1001700000000F1212120B0000000000000000002F
:10018000000000000000000000000000000000006F
:1001900000F0188686E1F1E1E1861818F000000011
:1001A000000000000000000060800080608000808F
:1001B000600040202020C00000E80020F82000005F
:1001C000000000000000000000000000000000002F
:1001D000000000000000000000000000000000001F
:1001E00000000000000307070707070707070707C6
:1001F00003000000000000000000000000030C03EA
:1002000000030C030000060909050F00000F0000A1
:100210000F080000000008000008000008000000AF
:1002200000000000000000000000000000000000CE
:1002300000000000000000000000000000000000BE
:1002400000000000000000000000000000000000AE
:10025000000000000000000000000000000000009E
:10026000000000000000000000000000000000008E
:10027000000000000000000000000000000000007E
:1002800000000000000000000000002F0000000738
:10029000000700147F147F14242A7F2A12C4C81078
:1002A000264636495522500609090600001C2241FF
:1002B000000041221C0014083E081408083E0808EB
:1002C000000050300010101010100060600000207E
:1002D000100804023E5149453E00427F4000426101
:1002E0005149462141454B311814127F102745458D
:1002F00045393C4A494930017109050336494949A4
:1003000036064949291E00363600000056360000E0
:100310000814224100141414141400412214080279
:1003200001510906324959513E7E1111117E7F4912
:100330004949363E414141227F4141221C7F494982
:1003400049417F090909013E4149497A7F08080866
:100350007F00417F41002040413F017F081422413E
:100360007F404040407F020C027F7F0408107F3EA8
:100370004141413E7F090909063E4151215E7F0905
:10038000192946464949493101017F01013F404051
:10039000403F1F2040201F3F4038403F6314081457
:1003A0006307087008076151494543007F414100D8
:1003B000552A552A550041417F000402010204409C
:1003C00040404040000102040020545454787F48CB
:1003D0004444383844444420384444487F385454D2
:1003E0005418087E0901020C5252523E7F08040440
:1003F0007800447D40002040443D007F10284400A8
:1004000000417F40007C041804787C08040478389C
:10041000444444387C14141408081414187C7C08D0
:100420000404084854545420043F4440203C4040B5
:10043000207C1C2040201C3C4030403C442810289C
:10044000440C5050503C4464544C446E616E0069FE
:100450006E660000407A10F35A00A0724E18090030
:1004600010A5D4E80000E87648170000E40B540219
:100470000000CA9A3B000000E1F505000080969854
:1004800000000040420F000000A0860100000010A4
:100490002700000000E803000000006400000000E6
:1004A000000A00000000000100000000002C76D8C7
:1004B00088DC674F0823DFC1DFAE59E1B1B796E5AD
:1004C000E3E453C63AE651997696E8E6C28426EB11
:1004D000898C9B62ED407C6FFCEFBC9C9F40F2BA24
:1004E000A56FA5F490055A2AF75C936B6CF9676DBC
:1004F000C11BFCE0E40D47FEF520E6B500D0ED9011
:100500002E0300943577050080841E080000204EDD
:100510000A000000C80C333333330F986E12831176
:1005200041EF8D2114893BE65516CFFEE6DB18D14D
:10053000844B381BF77C1D901DA4BBE4242032841F
:10054000725E228100C9F124ECA1E53D270011244F
:100550001FBECFEFD0E1DEBFCDBF11E0A0E0B1E024
:10056000EAE7F4E200E00BBF02C007900D92AE385C
:10057000B107D9F724E0AEE8B1E001C01D92A43480
:10058000B207E1F78BD20C943B123ACD97B1906C45
:1005900097B996B1976896B997B1987F892B87B923
:1005A000369A3699FECF84B195B10895A098A89A4D
:1005B00084B38C7F84BBA99A84B3887F84BBAA9AB6
:1005C00084B3807F84BBAB9A139A8AB783608ABF57
:1005D00089B7806189BF85B5886085BD87B7806828
:1005E00087BF85E283BD789408951F920F920FB65E
:1005F0000F9211248F939F9385B58D7F85BD1B9896
:100600008FEF80930F04809109048093430414BCFE
:1006100085B5826085BD8091150490911604019680
:1006200090931604809315049F918F910F900FBEA5
:100630000F901F9018951F920F920FB60F921124D2
:100640008F939F9380914304882339F090910F04F6
:1006500080914304981301C01B9A80910F0481502C
:1006600080930F049F918F910F900FBE0F901F905A
:10067000189589B78F7E89BF1B9885B58D7F85BDFD
:1006800008950F931F93CF93DF93082FCBE1D4E00E
:1006900011E0602F812FD5D3699181E0F4D3E2D4AA
:1006A0001F5F1F30B1F7DF91CF911F910F91089518
:1006B000109218047BDF8FE0E0E0F1E0ABE1B4E002
:1006C00001900D928A95E1F786E0DBDF2FEF89E656
:1006D00098E1215080409040E1F700C0000008956B
:1006E000C8DF81E08093180494D38FE0EFE0F1E05D
:1006F000ABE1B4E001900D928A95E1F786E0C1DFAD
:100700002FEF89E698E1215080409040E1F700C04A
:10071000000008950F931F93CF93DF93082F10E0ED
:10072000CBE1D4E0602F812F8CD3699182E0ABD3F1
:1007300099D41E5F1D30B0F3DF91CF911F910F91BF
:1007400008958F929F92AF92BF92CF92DF92EF92D5
:10075000FF922091B1013091B201275E3F4F80910D
:10076000190490911A0428173907E0F480911404B1
:100770008F5F80931404833030F481E080930E0403
:100780001092090481C18FE7809309042FEF42E59D
:1007900087E0215040408040E1F700C00000109207
:1007A00014040EC010920E048FE7809309049FEF8B
:1007B00022E547E0915020404040E1F700C00000B2
:1007C0001092130482E0E2DEBC0180E090E0C8D722
:1007D0009B01AC0160919101709192018091930114
:1007E00090919401BCD66093910170939201809393
:1007F00093019093940180E0C9DEBC0180E090E019
:10080000AFD79B01AC0160919501709196018091E9
:10081000970190919801A3D66093950170939601EA
:100820008093970190939801809113048F5F809338
:100830001304843138F220E030E040EA51E4609162
:100840009501709196018091970190919801EFD652
:100850006B017C0160939D0170939E0180939F01C9
:100860009093A00120E030E040EA51E460919101D2
:10087000709192018091930190919401D8D66093E8
:10088000990170939A0180939B0190939C0110921F
:1008900013041092950110929601109297011092F4
:1008A000980110929101109292011092930110926E
:1008B00094012AE037ED43E25BE30E94660C20E0FE
:1008C00030E040E851E40E94660C2DEC3CEC4CE03A
:1008D00050E445D621EB3FEB44EB5FE3A8D64B0158
:1008E0005C016093AD017093AE018093AF01909372
:1008F000B0012CE639E049E75BE3C701B601E6D772
:100900002FE530E749E850E32AD66B017C0160937C
:10091000A9017093AA018093AB019093AC0120E0F0
:1009200030E040E85FE3C501B40118D69B01AC019B
:10093000C701B601CBD74B015C016093A101709355
:10094000A2018093A3019093A401A7019601C7017E
:10095000B601BCD79B01AC01C501B40168D66B01DF
:100960007C016093A5017093A6018093A7019093E9
:10097000A80120E030E048EC52E4A4D718166CF44B
:1009800080E090E0A8ECB2E48093A5019093A601EA
:10099000A093A701B093A80130C0A7019601C70199
:1009A000B60194D726E838E34AEB50EC8FD74B01D9
:1009B0005C0124EA30EF48E253E4C701B60186D770
:1009C0009B01AC01C501B401CAD52BE734EB4FE361
:1009D00054E4C4D594D6633C41E074073CF082EC07
:1009E00091E090931204809311040DC0709312044F
:1009F000609311046A3A710534F48AEA90E09093A6
:100A00001204809311048091110490911204909328
:100A1000B4018093B30120918F0130919001820F36
:100A2000931F9093900180938F0120918E012F5FEF
:100A300020938E01233089F49C01ABEABAEA0E942C
:100A400063109695879590931A04809319041092D9
:100A50008E011092900110928F016091B3017091FC
:100A6000B4018091B1019091B20143D499279C01C6
:100A7000220F331F982F8827821B930B64E670E0A8
:100A80000E945010609309040000FF90EF90DF90E7
:100A9000CF90BF90AF909F908F90089587DD46D301
:100AA00080E4A9D1B6D18CE890E0C7D2DBD22FEF99
:100AB00083EC99E0215080409040E1F700C00000B5
:100AC000A8D1D0D25ED38EE591E09093B20180930D
:100AD000B1018AEA90E090931A04809319048091FE
:100AE00015049091160490930C0480930B0480914C
:100AF000B1019091B2019F938F938EE191E09F930A
:100B00008F938BE194E09F938F930E94AF1181E0CC
:100B1000B8DD0F900F900F900F900F900F900F2E49
:100B2000F6E5EF2EF1E0FF2EF02DCBE1D4E0689456
:100B3000332434F80F2EFAE02F2EF02D0EE111E0C1
:100B40000F2EFAEA8F2E912CF02D0F2EFCE7CF2ED0
:100B5000F1E0DF2EF02D0F2EFEE5AF2EBB24B39477
:100B6000F02D0F2EFCE76F2E77247394F02D0F2EAF
:100B7000FDE64F2EF1E05F2EF02D8091150490914F
:100B8000160420910B0430910C0426503F4F281777
:100B9000390748F4D6DD809115049091160490939E
:100BA0000C0480930B0480911804813009F451C027
:100BB00080910E04813059F4EDE2F1E0DE018FE026
:100BC00001900D928A95E1F786E05BDD42C020E05E
:100BD00030E048EC52E46091A5017091A60180914B
:100BE000A7019091A8011FD5811115C0ECE3F1E098
:100BF000DE01822D01900D928A95E1F784E08ADD75
:100C0000E6E4F1E0DE01832D01900D928A95E1F793
:100C100086E037DD1EC080911A048F9380911904FD
:100C20008F93FF92EF92DF93CF930E94AF1184E0F6
:100C300071DDEDE5F1E0DE01832D01900D928A95E5
:100C4000E1F786E01EDD0F900F900F900F900F9050
:100C50000F9066D48093170480911704833009F4B1
:100C600041C028F4813061F0823019F1B0C0853084
:100C700009F48CC008F460C0863009F48FC0A7C0A6
:100C8000B092B201A092B1018091B1019091B201F4
:100C90009F938F931F930F93DF93CF930E94AF1176
:100CA00081E0EFDC0F900F900F900F900F900F905E
:100CB0008FC07092B2016092B1018091B1019091A8
:100CC000B2019F938F935F924F92DF93CF930E94D5
:100CD000AF1181E0D6DC0F900F900F900F900F9026
:100CE0000F9076C080911804813009F4E1DC809186
:100CF000B1019091B201823C914048F48091B101E0
:100D00009091B20101969093B2018093B1018091CC
:100D1000B1019091B2019F938F931F930F93DF9333
:100D2000CF930E94AF1181E0ACDC0F900F900F9039
:100D30000F900F900F904CC080911804813009F4EF
:100D4000B7DC8091B1019091B2018B3A910548F0E6
:100D50008091B1019091B20101979093B20180937B
:100D6000B1018091B1019091B2019F938F931F9334
:100D70000F93DF93CF930E94AF1181E082DC0F903D
:100D80000F900F900F900F900F9022C08091180439
:100D9000811102C0A5DC1CC08BDC1AC09092B2018C
:100DA0008092B1018091B1019091B2019F938F9394
:100DB000DF92CF92DF93CF930E94AF1181E061DC8D
:100DC0000F900F900F900F900F900F9001C00000A8
:100DD00000008FE19EE40197F1F700C00000CDCE46
:100DE000C698613011F4C49A01C0C4988FB9779B3A
:100DF000FECFC69A0895CF93C82F60E081E2F0DF5E
:100E000060E08C2F8068ECDF60E080E2E9DFCF916A
:100E1000089588EF91E0ECEBF1E0DF019C011D9279
:100E200021503040E1F71092B9011092B80187EFDC
:100E300091E09093B7018093B60181E08093B50172
:100E400008958F30E0F46730E0F490E001979C0162
:100E5000220F331F820F931F880F991F70E061507C
:100E6000710944E5469F9001479F300D1124820F80
:100E7000931F9093BB018093BA0180E0089581E0B5
:100E8000089581E008951F93CF93DF932091BA01D5
:100E90003091BB014091B8015091B9012417350739
:100EA00024F43093B9012093B80190EE960F9C354D
:100EB00008F06CE5813021F52091BA013091BB0139
:100EC000E62FF0E0B097CF01880F991F880F991F88
:100ED000E80FF91FEC57FD4FD901A454BE4FC901CB
:100EE0008F539E4F4491440F4D933196A817B907E5
:100EF000C9F72B5F3F4F3093BB012093BA0174C0F9
:100F0000823009F071C0C901845591094091B8013E
:100F10005091B9018417950724F49093B9018093F7
:100F2000B80199230CF484C0E62FF0E0B097CF010C
:100F3000880F991F880F991FE80FF91FEC57FD4F75
:100F4000D901A759BE4FC9018D589E4F18E1449150
:100F5000440F542F5470652F660F560F550F550FC1
:100F6000642F6270762F770F670F660F562B742FE2
:100F70007870719F702D1124572B42954F70642FFC
:100F80006170762F770F670F742F7270C72FCC0F99
:100F90007C0F770F762B642F6470C62FCC0F6C0FED
:100FA000C62FCC0FCC0F672F6C2B4870419FC02DE4
:100FB0001124462F4C2BED01219758835C93CC5A7A
:100FC000DF4F48832196488331961296A817B907B8
:100FD00009F0BDCFC9010B9668EF71E00E94501077
:100FE0009093BB018093BA018091BA019091BB01AB
:100FF0002091B6013091B7012817390724F4909356
:10100000B7018093B601FC01E454FE4F1082873F84
:1010100021E0920731F41092BB011092BA0182E0F4
:1010200008C001969093BB018093BA0180E001C093
:1010300081E0DF91CF911F91089548EF51E0BC010D
:101040008CEB91E00E945E111092B9011092B801F0
:1010500087EF91E09093B7018093B60181E0809390
:10106000B50108950F931F93CF93DF938091B8013B
:101070009091B90199232CF41092B9011092B80102
:1010800009C0883F914034F087EF91E09093B90117
:101090008093B8018091B6019091B70199232CF407
:1010A0001092B7011092B60109C0883F914034F008
:1010B00087EF91E09093B7018093B601C091B8019A
:1010C000D091B901CE0164E570E0EAD7162F60E057
:1010D000806886DE60E0812F806482DE8091B601C8
:1010E0009091B7018C179D0784F08E0104541E4F18
:1010F00061E0F80181918F0173DE21968091B60144
:101100009091B7018C179D079CF787EF91E0909322
:10111000B9018093B8011092B7011092B6011092F4
:10112000B501DF91CF911F910F910895C09A87B3B8
:10113000876787BBBB98C59AC098C09A87E58DB969
:101140006F98C69A60E081E24BDE60E088EC48DE92
:1011500060E086E045DE60E083E142DE60E080E260
:101160003FDE60E08CE03CDE88EF91E09093B901D7
:101170008093B8011092B7011092B6014ADE72CF87
:10118000089580E090E0A0E8B0E48093D9039093C4
:10119000DA03A093DB03B093DC038AE08093B4030B
:1011A0008AE999E9A9E9BFE38093D5039093D6032F
:1011B000A093D703B093D8038DEC9CECACE8BFE3CD
:1011C0008093D1039093D203A093D303B093D4031D
:1011D00080E090E0A0E0B0E48093CD039093CE0354
:1011E000A093CF03B093D00380E090E0A4E2B2E4F8
:1011F0008093050490930604A0930704B093080419
:1012000080E090E0A8E2B2EC8093010490930204A5
:10121000A0930304B093040480E090E0A0E8BFE34F
:101220008093FD039093FE03A093FF03B09300040B
:101230008AE999E9AFE6B3E48093F9039093FA035E
:10124000A093FB03B093FC038AE999E9A5E9B2EC0A
:101250008093F5039093F603A093F703B093F803FC
:1012600083E393E3A3E3B1E48093F1039093F20368
:10127000A093F303B093F40388E39FE1A3E8BFEBEB
:101280008093ED039093EE03A093EF03B093F003EC
:101290008CE09EECA7ECBCE38093E9039093EA0317
:1012A000A093EB03B093EC0380E491E0ABEBB0E4EC
:1012B0008093E5039093E603A093E703B093E803DC
:1012C0008FE995E8A9EEBFEB8093E1039093E203E9
:1012D000A093E303B093E40389E09DEDABE8BEE3A4
:1012E0008093DD039093DE03A093DF03B093E003CC
:1012F00008954F925F926F927F928F929F92AF92DA
:10130000BF92CF92DF92EF92FF92CF93DF93CDB750
:10131000DEB728970FB6F894DEBF0FBECDBF209181
:10132000C5033091C6034091C7035091C803298378
:101330003A834B835C832093C9033093CA03409361
:10134000CB035093CC032091C1033091C203409151
:10135000C3035091C4032D833E834F83588720934A
:10136000C5033093C6034093C7035093C8038090CE
:10137000B5039090B603A090B703B090B8038092E5
:10138000B9039092BA03A092BB03B092BC03409001
:10139000BD035090BE036090BF037090C0034092A5
:1013A000B5035092B6036092B7037092B803861BE0
:1013B000970BBC01882777FD8095982FD3D16B01BF
:1013C0007C016093C1037093C2038093C303909325
:1013D000C4038091ED039091EE03A091EF03B091CF
:1013E000F0039C01AD015058C301B2016FD22B0133
:1013F0003C012091E9033091EA034091EB035091C5
:10140000EC03C501B40162D29B01AC01C301B2017E
:10141000A5D04B015C012091E5033091E60340919A
:10142000E7035091E803C701B60150D29B01AC011C
:10143000C501B40194D06B017C012091E10330918E
:10144000E2034091E3035091E4036D817E818F813B
:1014500098853CD29B01AC01C701B60180D06B01DD
:101460007C012091DD033091DE034091DF03509138
:10147000E00369817A818B819C8128D29B01AC0138
:10148000C701B6016CD06B017C016093BD03709302
:10149000BE038093BF039093C00320E030E048EC8C
:1014A00052E410D218166CF480E090E0A8ECB2E49C
:1014B0008093BD039093BE03A093BF03B093C0037A
:1014C00010C020E030E0A901C701B601ACD08823EC
:1014D00044F41092BD031092BE031092BF03109209
:1014E000C0036091BD037091BE038091BF039091D2
:1014F000C0030AD1CB0128960FB6F894DEBF0FBE09
:10150000CDBFDF91CF91FF90EF90DF90CF90BF9054
:10151000AF909F908F907F906F905F904F900895C5
:10152000989902C0999B0EC09B9902C09A9B0CC0CF
:10153000989B0CC0999B0CC09A9B0CC09B990CC0AB
:1015400084E0089586E0089585E0089581E0089597
:1015500082E0089583E008958FEF08955058BB27E7
:10156000AA270ED075C166D130F06BD120F031F4CE
:101570009F3F11F41EF45BC10EF4E095E7FB51C1EF
:10158000E92F77D180F3BA176207730784079507AD
:1015900018F071F49EF58FC10EF4E0950B2EBA2F62
:1015A000A02D0B01B90190010C01CA01A001112469
:1015B000FF27591B99F0593F50F4503E68F11A1615
:1015C000F040A22F232F342F4427585FF3CF4695A6
:1015D00037952795A795F0405395C9F77EF41F16C8
:1015E000BA0B620B730B840BBAF09150A1F0FF0F92
:1015F000BB1F661F771F881FC2F70EC0BA0F621F7E
:10160000731F841F48F4879577956795B795F7956D
:101610009E3F08F0B3CF9395880F08F09927EE0FFF
:10162000979587950895D9D008F481E008950CD056
:101630000FC107D140F0FED030F021F45F3F19F028
:10164000F0C0511139C1F3C014D198F39923C9F3F3
:101650005523B1F3951B550BBB27AA2762177307B8
:10166000840738F09F5F5F4F220F331F441FAA1F6C
:10167000A9F333D00E2E3AF0E0E830D0915050402C
:10168000E695001CCAF729D0FE2F27D0660F771FDA
:10169000881FBB1F261737074807AB07B0E809F0BC
:1016A000BB0B802DBF01FF2793585F4F2AF09E3F51
:1016B000510568F0B6C000C15F3FECF3983EDCF323
:1016C000869577956795B795F7959F5FC9F7880FCA
:1016D000911D9695879597F90895E1E0660F771F1C
:1016E000881FBB1F621773078407BA0720F0621BAD
:1016F000730B840BBA0BEE1F88F7E095089504D0A6
:101700006894B111D9C00895BCD088F09F5790F06B
:10171000B92F9927B751A0F0D1F0660F771F881F16
:10172000991F1AF0BA95C9F712C0B13081F0C3D031
:10173000B1E00895C0C0672F782F8827B85F39F0CF
:10174000B93FCCF3869577956795B395D9F73EF475
:1017500090958095709561957F4F8F4F9F4F08951D
:10176000E89409C097FB3EF490958095709561953B
:101770007F4F8F4F9F4F9923A9F0F92F96E9BB27F1
:101780009395F695879577956795B795F111F8CF6D
:10179000FAF4BB0F11F460FF1BC06F5F7F4F8F4FD8
:1017A0009F4F16C0882311F096E911C0772321F0CE
:1017B0009EE8872F762F05C0662371F096E8862F66
:1017C00070E060E02AF09A95660F771F881FDAF7BD
:1017D000880F9695879597F90895990F0008550FEA
:1017E000AA0BE0E8FEEF16161706E807F907C0F0A7
:1017F00012161306E407F50798F0621B730B840BAF
:10180000950B39F40A2661F0232B242B252B21F488
:1018100008950A2609F4A140A6958FEF811D811D28
:10182000089597F99F6780E870E060E008959FEF62
:1018300080EC089500240A94161617061806090667
:10184000089500240A941216130614060506089536
:10185000092E0394000C11F4882352F0BB0F40F4BE
:10186000BF2B11F460FF04C06F5F7F4F8F4F9F4FFE
:10187000089557FD9058440F551F59F05F3F71F080
:101880004795880F97FB991F61F09F3F79F08795E7
:101890000895121613061406551FF2CF4695F1DF70
:1018A00008C0161617061806991FF1CF8695710500
:1018B000610508940895E894BB2766277727CB0134
:1018C00097F908958ADF08F48FEF08950BD0C0CF01
:1018D000B1DF28F0B6DF18F0952309F0A2CFA7CF2B
:1018E0001124EACFC6DFA0F3959FD1F3950F50E006
:1018F000551F629FF001729FBB27F00DB11D639FC2
:10190000AA27F00DB11DAA1F649F6627B00DA11D67
:10191000661F829F2227B00DA11D621F739FB00D0D
:10192000A11D621F839FA00D611D221F749F33277D
:10193000A00D611D231F849F600D211D822F762F16
:101940006A2F11249F5750408AF0E1F088234AF013
:10195000EE0FFF1FBB1F661F771F881F915050405F
:10196000A9F79E3F510570F05CCFA6CF5F3FECF327
:10197000983EDCF3869577956795B795F795E7954B
:101980009F5FC1F7FE2B880F911D9695879597F95C
:1019900008952F923F924F925F926F927F928F9213
:1019A0009F92AF92BF92CF92DF92EF92FF920F93EE
:1019B0001F93CF93DF93CDB7DEB763970FB6F8943D
:1019C000DEBF0FBECDBF7C011B016A01FC01178287
:1019D0001682838181FF49C3BE016F5F7F4F4B0138
:1019E000F7019381F10193FD859193FF81911F018F
:1019F000882309F436C3853239F493FD859193FF2A
:101A000081911F01853231F4B70190E076D45601FF
:101A10006501E6CF10E0512C20E02032A0F48B329B
:101A200069F030F4803259F0833269F420612CC0BF
:101A30008D3239F0803339F4216026C02260246071
:101A400023C0286021C027FD27C030ED380F3A3071
:101A500078F426FF06C0FAE01F9F300D1124132FE3
:101A600013C06AE0569E300D1124532E20620CC024
:101A70008E3221F426FDF5C2206406C08C3611F4A6
:101A8000206802C0883641F4F10193FD859193FFEF
:101A900081911F018111C1CF9BEB980F933018F4F6
:101AA0002061805E06C09BE9980F933008F09AC1D0
:101AB0002F7E26FF16E02F73722E853621F4F22F2B
:101AC000F0647F2E08C0863621F4622F6068762E7F
:101AD00002C01111115077FE07C01C3348F4442492
:101AE0004394410E27E00BC0183030F4212F06C07C
:101AF00027E04CE3442E03C027E017E0412C5601B9
:101B000074E0A70EB11CF60160817181828193811E
:101B1000042DA401FBD26C01098100FF02C003FF68
:101B200006C071FC07C072FC08C0612C08C03DE211
:101B3000632E05C02BE2622E02C090E2692E802F38
:101B40008C7081F1662011F084E001C083E085157E
:101B500010F0512C0AC0581A73FC07C0B70180E27C
:101B600090E0CBD35A94D1F7F4CF662021F0B7019F
:101B7000862D90E0C2D303FD03C00FE414E002C041
:101B80000BE414E0F72DF0717F2EF8018491882387
:101B900009F45EC271108052B70190E0AED30F5FBE
:101BA0001F4FF3CF77FE0FC04C0C04FF04C08A8197
:101BB000813309F44A94141474F5F8E0F41578F5B7
:101BC00088E0482E2CC076FC2AC0812F90E08C152E
:101BD0009D059CF06CEFC6166FEFD60674F0772D5E
:101BE0007068772E0AC0E2E0F0E0EC0FFD1FE10F15
:101BF000F11D8081803319F411501111F4CF77FE5B
:101C00000EC044244394410E812F90E0C816D9069B
:101C10002CF41C1904C04424439401C010E077FE46
:101C200007C01C141D043CF496012F5F3F4F05C0F4
:101C300025E030E002C021E030E0662011F02F5FA7
:101C40003F4F112331F0412F50E04F5F5F4F240F82
:101C5000351F452D50E02417350714F4521A01C0E2
:101C6000512C872D897041F4552031F0B70180E265
:101C700090E043D35A94F8CF662021F0B701862D27
:101C800090E03BD373FC08C0552031F0B70180E3EE
:101C900090E033D35A94F8CF77FE5DC09C2D8D2D04
:101CA000D7FE02C090E080E0692E782E40E050E040
:101CB000C601841991099D878C87960126193709D9
:101CC000280D391D812F90E0EE27FF27E81BF90B27
:101CD000FF87EE87FFEF6F167F0661F4B7018EE294
:101CE00090E02B8B3A8B488B598B07D359894889C5
:101CF0003A892B89C614D70454F06C857D85661506
:101D000077052CF4F901E40FF51F818101C080E310
:101D100071E0671A71084F5F5F4FEE85FF856E16A1
:101D20007F0664F0B70190E02B8B3A8B488B598B80
:101D3000E4D22B893A8948895989CCCF6C147D0427
:101D400039F49A81963318F4953311F404FF81E342
:101D5000B70190E045C08A81813309F00F7EB70159
:101D600090E0CBD2111105C074FE16C085E490E05E
:101D700015C0B7018EE290E0C0D282E06624639481
:101D8000680EF401E80FF11D8081B70190E0B5D233
:101D9000115051F3862DF2CF85E690E0B701ADD218
:101DA000D7FC05C0C114D10439F404FF05C0D19497
:101DB000C194D1088DE201C08BE2B70190E09DD2C1
:101DC00080E36AE0C616D1042CF08F5FFAE0CF1AE8
:101DD000D108F7CFB70190E090D2B701C601C09605
:101DE0008CD236C1833631F0833779F0833509F0F0
:101DF00054C020C0560172E0A70EB11CF6018081CC
:101E0000898301E010E0640113C05601F2E0AF0ED7
:101E1000B11CF601C080D18026FF03C0612F70E0A5
:101E200002C06FEF7FEFC6012B8B5CD28C012B8938
:101E30002F7714C05601F2E0AF0EB11CF601C0803E
:101E4000D18026FF03C0612F70E002C06FEF7FEFEB
:101E5000C6012B8B3CD28C012B892068722E23FD6E
:101E600018C0852D90E00817190798F4B70180E293
:101E700090E043D25A94F5CFF60177FC859177FE36
:101E800081916F01B70190E038D251105A940150FE
:101E900011090115110581F7DBC0843611F089366F
:101EA00049F5560127FF09C0F4E0AF0EB11CF60159
:101EB00060817181828193810AC0F2E0AF0EB11C12
:101EC000F60160817181882777FD8095982F022F18
:101ED0000F7697FF08C090958095709561957F4F1C
:101EE0008F4F9F4F00682AE030E0A40166D2C82ED1
:101EF000C8183DC0022F853721F40F7E2AE030E05C
:101F00001DC0097F8F3691F018F4883559F0A9C0AB
:101F1000803719F0883711F0A4C0006104FF09C0B0
:101F2000046007C024FF08C0066006C028E030E057
:101F300005C020E130E002C020E132E0560107FF99
:101F400009C0F4E0AF0EB11CF6016081718182819D
:101F5000938108C0F2E0AF0EB11CF601608171817F
:101F600080E090E0A40129D2C82EC8180F7706FFA0
:101F70000BC0202F2E7FC11650F404FF0AC002FDB3
:101F800008C0202F2E7E05C0DC2C202F03C0DC2CA7
:101F900001C0D12E24FF0DC0FE01EC0DF11D80818A
:101FA000803311F4297E09C022FF06C0D394D39454
:101FB00004C0822F867809F0D39423FD12C020FF3D
:101FC00006C01C2DD51418F4150D1D19D52CD514CB
:101FD00060F4B70180E290E02B8B8FD1D3942B89F2
:101FE000F6CFD51410F45D1801C0512C24FF11C098
:101FF000B70180E390E02B8B80D12B8922FF16C0A4
:1020000021FF03C088E590E002C088E790E0B701B7
:102010000CC0822F867851F021FD02C080E201C001
:102020008BE227FD8DE2B70190E067D1C11630F455
:10203000B70180E390E061D11150F8CFCA94F40168
:10204000EC0DF11D8081B70190E057D1C110F6CFA2
:10205000552009F4DDCCB70180E290E04ED15A94CE
:10206000F7CFF7018681978102C08FEF9FEF6396CC
:102070000FB6F894DEBF0FBECDBFDF91CF911F9199
:102080000F91FF90EF90DF90CF90BF90AF909F9017
:102090008F907F906F905F904F903F902F9008951A
:1020A00097FB072E16F4009406D077FD08D01AD0BF
:1020B00007FC05D03EF4909581959F4F089570954B
:1020C00061957F4F0895A29FB001B39FC001A39F68
:1020D000700D811D1124911DB29F700D811D112461
:1020E000911D0895AA1BBB1B51E107C0AA1FBB1F6E
:1020F000A617B70710F0A61BB70B881F991F5A9594
:10210000A9F780959095BC01CD010895283008F07D
:1021100027E03327DA01990F311D87FD9160009682
:102120006105710539F432602E5F3D9330E32A95E5
:10213000E1F708959F3F30F080387105610509F09F
:102140003C5F3C5F3D93913008F08068911DDF93C8
:10215000CF931F930F93FF92EF92192F987F96952D
:10216000E92F96959695E90FFF27E355FB4F9927A1
:102170003327EE24FF24A701E70105900894079474
:1021800028F4360FE71EF81E491F511D660F771FF2
:10219000881F991F0694A1F70590079428F4E70E6D
:1021A000F81E491F561FC11D770F881F991F661FF4
:1021B0000694A1F70590079428F4F80E491F561FBE
:1021C000C71FD11D880F991F661F771F0694A1F79F
:1021D0000590079420F4490F561FC71FD81F990F69
:1021E000661F771F881F0694A9F7849110951770B2
:1021F00041F0D695C79557954795F794E7941A956A
:10220000C1F7E3E5F4E06894159015913591659177
:10221000959105907FE27395E118F10A430B560BF7
:10222000C90BD009C0F7E10CF11E431F561FC91F8F
:10223000D01D7EF4703311F48A95E6CFE8940150F6
:1022400030F0080F0AF40027021708F4202F239516
:10225000022F7A3328F079E37D932A95E9F710C0AD
:102260007D932A9589F606949795679537951795E6
:102270001794E118F10A430B560BC90BD00998F0DB
:1022800023957E9173957A3308F070E37C93201345
:10229000B8F77E9170617D9330F0839571E37D9303
:1022A00070E32A95E1F71124EF90FF900F911F91B1
:1022B000CF91DF91992787FD90950895FB01DC016F
:1022C00002C005900D9241505040D8F70895FC018E
:1022D0000590615070400110D8F7809590958E0F51
:1022E0009F1F0895FC016150704001900110D8F7C4
:1022F000809590958E0F9F1F08950F931F93CF93F6
:10230000DF93182F092FEB018B8181FD03C08FEF25
:102310009FEF20C082FF10C04E815F812C813D81E4
:10232000421753077CF4E881F9819F012F5F3F4FEB
:1023300039832883108306C0E885F985812F0995A4
:10234000892B29F72E813F812F5F3F4F3F832E83BB
:10235000812F902FDF91CF911F910F9108950F93AF
:102360001F93CF93DF93CDB7DEB72E970FB6F894B8
:10237000DEBF0FBECDBF0D891E8986E08C831A8318
:1023800009838FEF9FE79E838D83AE01475E5F4F8A
:102390006F89788DCE010196FCDAEF81F885E00F28
:1023A000F11F10822E960FB6F894DEBF0FBECDBF80
:1023B000DF91CF911F910F910895FA01AA2728303C
:1023C00051F1203181F1E8946F936E7F6E5F7F4F02
:1023D0008F4F9F4FAF4FB1E03ED0B4E03CD0670F7E
:1023E000781F891F9A1FA11D680F791F8A1F911DD1
:1023F000A11D6A0F711D811D911DA11D20D009F421
:1024000068943F912AE0269F11243019305D319362
:10241000DEF6CF010895462F4770405D4193B3E04B
:102420000FD0C9F7F6CF462F4F70405D4A3318F0F2
:10243000495D31FD4052419302D0A9F7EACFB4E0A3
:10244000A6959795879577956795BA95C9F700975B
:102450006105710508959B01AC010A2E06945795FC
:10246000479537952795BA95C9F7620F731F841F53
:0A247000951FA01D0895F894FFCFFA
:10247A003E3E20205745414B205550203C3C003ED3
:10248A003E202041534C45455020203C3C00202012
:10249A002020202564202020202020200020434FB7
:1024AA004F4C494E4720444F574E200020202D2D97
:1024BA002D2D202020002048415244572E50524FA3
:1024CA00424C454D2000202025642743002020202F
:1024DA0048454154494E47202020202000202020F2
:1024EA002020202020202020256420002564202070
:0E24FA00202020202020202020202020000054
:00000001FF
